:020000040800F2
:10000000A82B0020F524000835030008370300085A
:100010003B0300083F030008430300080000000002
:10002000000000000000000000000000470300087E
:1000300049030008000000004B0300084D030008BE
:100040000F2500080F2500080F2500080F250008C0
:100050000F2500080F2500080F2500080F250008B0
:100060000F2500080F2500080F2500080F250008A0
:100070000F2500080F2500080F2500080F25000890
:100080000F2500080F2500080F2500080F25000880
:100090000F2500080F2500080F2500080F25000870
:1000A0000F2500080F2500080F2500080F25000860
:1000B0000F2500080F2500080F2500080F25000850
:1000C0000F2500080F2500080F2500080F25000840
:1000D0000F250008692400080F2500080F250008D7
:1000E0000F2500080F2500080F2500080F25000820
:1000F0000F2500080F2500080F2500080F25000810
:100100000F2500080F2500080F2500080F250008FF
:100110000F2500080F2500080F2500080F250008EF
:100120000F2500080F2500080F2500080F250008DF
:10013000DFF80CD002F0ECFF004800475D0100083A
:10014000A82B002010B5044604E021785C4802F09A
:10015000ACFE641C20780028F7D110BD00254FF4B8
:10016000A06002F067FF02F0BBF84FF4165002F0F7
:100170002FF900F0DDF900F02BFA00F0FBFC00F0A5
:1001800090FB50A0FFF7DEFF06205449C87795E0AA
:10019000012000F032FA0446012C06D0022C08D0CF
:1001A000032C0AD0042C7AD13EE04DA0FFF7CAFF01
:1001B00075E050A0FFF7C6FF71E04848017F14309A
:1001C000405C401CC1B24548027F14308154143851
:1001D000017F1430415C1438C07F401E814204DD31
:1001E00000213E48027F143081543C48017F0C308E
:1001F000405C02280ADA3948017F0C30405C401C20
:10020000C1B23648027F0C30815409E03348017F87
:100210001430405C20B900213048027F0C308154FA
:1002200039A0FFF78FFF3AE02C48017F1430405C83
:1002300040B92A48C07F401EC1B22848027F14300E
:10024000815409E02548017F1430405C401EC1B252
:100250002248027F143081542048017F0C30405CDA
:1002600000280ADD1D48017F0C30405C401EC1B2F1
:100270001A48027F0C3081540DE01848017F143079
:10028000415C1438C07F401E814204D102211348D2
:10029000027F0C30815421A0FFF754FF00BF00BF44
:1002A000681C85B205F00F01214A52F8210000F0C8
:1002B00065F9642002F051F801F0CBFF68E7000017
:1002C0000038014053746172742D526561642D329F
:1002D000344330322E2E2E2E0D0A0000C026002070
:1002E0004B4559302050524553532E2E2E2E0D0A79
:1002F000000000004B4559312050524553532E2EDB
:100300002E2E0D0A000000004B4559322050524558
:1003100053532E2E2E2E0D0A000000004B4559334C
:100320002050524553532E2E2E2E0D0A0000000051
:10033000BC310008704700BFFEE700BFFEE700BF0A
:10034000FEE700BFFEE77047704770477047000048
:100350000CB50020019000906C48006840F480309B
:100360006A49086000BF6948006800F400300090E6
:100370000198401C0190009818B90198B0F5A06F41
:10038000F1D16248006800F4003010B10120009003
:1003900001E0002000900098012843D15C480068EB
:1003A00040F010005A4908600846006820F0030039
:1003B00008600846006840F0020008605348406842
:1003C000524948600846406848600846406840F422
:1003D000806048600846406820F47C104860084609
:1003E000406840F4E81048600846006840F08070BB
:1003F000086000BF4548006800F000700028F9D090
:100400004248406820F00300404948600846406880
:1004100040F00200486000BF3C48406800F00C001B
:100420000828F9D10CBD10B5FFF792FF10BD10B52B
:100430003648006840F001003449086008464068CA
:10044000344908403149486008460068324908404C
:100450002E4908600846006820F48020086008469D
:10046000406820F4FE0048604FF41F008860FFF7EA
:10047000DAFF4FF000602949086010BD10B5002177
:1004800000200022214B5B6803F00C0121B10429FC
:1004900006D0082928D107E0214B224C236027E011
:1004A0001F4B204C236023E0184B5B6803F4701053
:1004B000164B5B6803F48032022303EB904022B9B1
:1004C000194B4343174C23600DE0104B5B6803F45A
:1004D000003323B1144B4343124C236003E0104B11
:1004E0004343104C236003E00D4B0E4C236000BFD0
:1004F00000BF064B5B68C3F303130C4CE15C094B74
:100500001B68CB40074C236010BD00000010024068
:10051000002002400000FFF8FFFFF6FE08ED00E0BB
:1005200000127A000800002000093D000C000020A5
:1005300008B50121102002F00BFB0121042002F07C
:1005400007FB4FF40050ADF8000003208DF80200C7
:1005500010208DF803006946194802F03DF841F675
:100560000F10ADF8000003208DF8020010208DF868
:1005700003006946134802F02FF808BD00F001019E
:10058000114A1160C0F34001104AC2F88411C0F34F
:1005900080010D4A08321160C0F3C001121D1160C4
:1005A000C0F30011084A20321160C0F34011064A1E
:1005B0002C321160C0F38011121D116070470000D1
:1005C000001001400008014080012142000021424A
:1005D00008B50121082002F0BBFA01212D4802F0E4
:1005E000CCF84FF47070ADF8000048208DF803008F
:1005F0006946294801F0F0FF08BD10B5044614B162
:100600000120264908702548007858B3244800681E
:1006100058B12348001D006838B1214808300068EF
:1006200018B11F480C300068E0B90A2001F095FEAF
:1006300000201A4908701A48006808B9012010BD46
:100640001748001D006808B90220F8E71448083070
:10065000006808B90320F2E711480C300068B0B90F
:100660000420ECE70E480068012810D10C48001D5A
:10067000006801280BD10A4808300068012806D11B
:1006800007480C300068012801D104490870002097
:10069000D5E7000000023000000C01401C000020E3
:1006A0001881214210B54FF48051F94802F041F809
:1006B0004FF40041F64802F03CF84FF40041F44892
:1006C00002F039F84FF48051F14802F034F810BDCF
:1006D00010B54FF48051EE4802F02BF84FF4004172
:1006E000EB4802F028F84FF40041E94802F021F805
:1006F00010BD10B54FF48051E54802F01AF84FF4E0
:100700008051E34802F017F810BD2DE9F04105468D
:100710002C464FF48051DE4802F00DF800261CE014
:10072000274607F08007802F04D13902D84802F00D
:1007300000F804E04FF40041D54801F0FCFF6006EA
:10074000040E4FF48051D24801F0F3FF4FF4805172
:10075000CF4801F0F0FF701CC6B2082EE0DBBDE808
:10076000F08110B50446FFF79DFF7820FFF7CDFF1D
:10077000FFF7BFFF0020FFF7C8FFFFF7BAFF2046D3
:10078000FFF7C3FFFFF7B5FFFFF7A2FF10BD10B5DE
:100790000446FFF787FF7820FFF7B7FFFFF7A9FFB1
:1007A0004020FFF7B2FFFFF7A4FF2046FFF7ADFFA1
:1007B000FFF79FFFFFF78CFF10BD70B504460D4695
:1007C0001DB1E0B2FFF7E3FF02E0E0B2FFF7C9FFBF
:1007D00070BD70B50646002418E004F1B000002199
:1007E000FFF7EBFF00210846FFF7E7FF002110208D
:1007F000FFF7E3FF002505E001213046FFF7DDFFAD
:10080000681CC5B2802DF7DB601CC4B2082CE4DB89
:1008100070BD06E041F6650100E0491E0029FCD1EB
:10082000401E0028F6D17047014605E0002001E097
:10083000421CD0B27B28FBDB0A1EA1F10101F5D1DD
:10084000704770B504460D4605F1B0000021FFF772
:10085000B4FF102141EA14100021FFF7AEFF04F0AD
:100860000F000021FFF7A9FF70BD10B500218D20FA
:10087000FFF7A3FF00211420FFF79FFF0021AF2007
:10088000FFF79BFF10BD10B500218D20FFF795FFEE
:1008900000211020FFF791FF0021AE20FFF78DFF10
:1008A00010BD70B5002418E004F1B0000021FFF77E
:1008B00084FF00210846FFF780FF00211020FFF78A
:1008C0007CFF002505E001210020FFF776FF681C72
:1008D000C5B2802DF7DB601CC4B2082CE4DB70BD10
:1008E00070B5002418E004F1B0000021FFF765FFA7
:1008F00000210846FFF761FF00211020FFF75DFF90
:10090000002505E001210846FFF757FF681CC5B226
:10091000802DF7DB601CC4B2082CE4DB70BD2DE930
:10092000F04707460E469046994600250024A8F158
:100930002000C5B27F2F02DD0027B01CC6B2B9F17E
:10094000100F24D131463846FFF77BFF002408E022
:1009500004EB05114F4A505C0121FFF72EFF601C8C
:10096000C4B2082CF4DB701CC1B23846FFF769FF33
:10097000002409E004EB05110831464A505C0121CE
:10098000FFF71BFF601CC4B2082CF3DB12E03146FA
:100990003846FFF756FF00240AE005EB45013E4AC2
:1009A00002EB4101085D0121FFF707FF601CC4B2A3
:1009B000062CF2DBBDE8F08710B50246012000E00E
:1009C00050430B1EA1F10104E1B2F9D110BD2DE994
:1009D000FF5F074691461E460E9D4FF0000A002419
:1009E00035E0301B401EC1B20A20FFF7E5FFB9FB1E
:1009F000F0F00A21B0FBF1F201FB1208BAF1000F8E
:100A000014D1701EA04211DDB8F1000F0CD1AB461D
:100A100005EBDB71491001FB0471C8B22B462022A3
:100A20000199FFF77CFF10E04FF0010AAB4605EBA0
:100A3000DB71491001FB0471C8B208F13001CAB280
:100A40002B460199FFF76BFF00BF601CC4B2B44294
:100A5000C7DBBDE8FF9F2DE9F04104460F46154670
:100A6000984600260FE0AA5D434639462046FFF728
:100A700056FF04F10800C4B2782C02DD0024B81C33
:100A8000C7B2701CC6B2A85D0028ECD1BDE8F081E9
:100A9000000C01400C340008E43100082DE9F0415D
:100AA00080460E461546002731464046FFF7C9FEF0
:100AB00000240AE0744A02EB8511085D0121FFF76A
:100AC0007CFE781CC7B2601CC4B2102CF2DB701C18
:100AD000C1B24046FFF7B5FE00240CE06900491C96
:100AE000694A02EB4111085D0121FFF766FE781C9F
:100AF000C7B2601CC4B2102CF0DBBDE8F0812DE958
:100B0000F05F06460F4690461C46DDF828A04FF0E1
:100B1000000BE11704EB5171C910A4EBC10131B90D
:100B20002046E11704EB5171C1F3C70506E02046EA
:100B3000E11704EB5171C910491CCDB23D4615E0D7
:100B400029463046FFF77DFEB1460BE059460BF1D2
:100B5000010B1AF801000121FFF72FFE09F1010036
:100B600000F0FF09C145F1DB681CC5B2A542E7DB17
:100B7000BDE8F09F08B50121082001F0E9FF4FF41E
:100B80001040ADF8000010208DF8030003208DF810
:100B9000020069463D4801F01FFD4FF410413B48FB
:100BA00001F0C7FD4FF4487001F0D7FB0021AE20E3
:100BB000FFF703FE00210846FFF7FFFD002110208C
:100BC000FFF7FBFD00214020FFF7F7FD0021B020DB
:100BD000FFF7F3FD00218120FFF7EFFD0021FF204B
:100BE000FFF7EBFD0021A120FFF7E7FD0021A62084
:100BF000FFF7E3FD0021A820FFF7DFFD00213F20E4
:100C0000FFF7DBFD0021C820FFF7D7FD0021D3202F
:100C1000FFF7D3FD00210846FFF7CFFD0021D520C7
:100C2000FFF7CBFD00218020FFF7C7FD0021D82072
:100C3000FFF7C3FD00210520FFF7BFFD0021D920EC
:100C4000FFF7BBFD0021F120FFF7B7FD0021DA20FF
:100C5000FFF7B3FD00211220FFF7AFFD0021DB20DD
:100C6000FFF7ABFD00213020FFF7A7FD00218D200D
:100C7000FFF7A3FD00211420FFF79FFD0021AF2007
:100C8000FFF79BFD08BD00001D000020000C014087
:100C90002DE9F04106460F46144631463846FFF727
:100CA000D0FD0E2505E02078FFF771FD641C681E5D
:100CB000C5B2002DF7D1701CC6B231463846FFF7D9
:100CC000C0FD0E2507E0217841F04000FFF75FFDF1
:100CD000641C681EC5B2002DF5D1BDE8F0812DE978
:100CE000F04106460F46144631463846FFF7A9FD47
:100CF0000E2507E02178C943C8B2FFF748FD641C00
:100D0000681EC5B2002DF5D1701CC6B231463846FA
:100D1000FFF797FD0E2508E0207880F07F08404619
:100D2000FFF735FD641C681EC5B2002DF4D1BDE887
:100D3000F0812DE9F04106460F461446314638460B
:100D4000FFF77FFD0E2505E02078FFF720FD641CEE
:100D5000681EC5B2002DF7D1701CC6B231463846A8
:100D6000FFF76FFD0E2505E02078FFF710FD641CEE
:100D7000681EC5B2002DF7D1BDE8F0810246A2F190
:100D8000A10043286FD2DFE810F043006E006E0030
:100D90006E006E0072006E0077006E006E006E00D6
:100DA0006E006E006E006E0081009300BB00EF00CD
:100DB0002B0159018101B501D901010221022F0244
:100DC00041038103A903B703C903E90309042D04FF
:100DD0003B04530460048404A804D604F6041306F8
:100DE0002F06410661067D06A506DD06FD061507F0
:100DF00031075F077707AB076E006E006E006E006D
:100E00006E006E006E006E006E006E006E00DF07FA
:100E1000F12920D00CDCE62917D004DCE12910D020
:100E2000E32923D10FE0EE2911D0F0291ED110E0E3
:100E3000F32912D0F42912D0F82912D0F92915D1AA
:100E400012E0F9487047F948FCE7F948FAE7F94831
:100E5000F8E7F948F6E7F948F4E7F948F2E7F9481E
:100E6000F0E7F948EEE7D0E2F848EBE7CDE2B82941
:100E700001D1F748E6E7F9E7782902D08B2904D1B8
:100E800001E0F448DEE7F448DCE7EFE7B42906D0F8
:100E9000B82906D0E52906D0E62908D105E0EF48B3
:100EA000D0E7EF48CEE7EF48CCE7EF48CAE7DDE709
:100EB000C82918D008DCA3290FD0A7290FD0A8294A
:100EC0000FD0BE291BD110E0D52910D0DF2910D0BA
:100ED000E02910D0EA2912D10FE0E448B2E7E44853
:100EE000B0E7E448AEE7E448ACE7E448AAE7E44802
:100EF000A8E7E448A6E7E448A4E7E448A2E7B5E7A2
:100F0000C92922D00CDCBB291BD004DCA82914D0B1
:100F1000B92928D113E0BD291DD0BF2923D112E062
:100F2000E2291AD004DCCB2911D0CE291BD110E044
:100F3000E92914D0FA2916D113E0D54882E7D5481B
:100F400080E7D5487EE7D5487CE7D5487AE7D5489D
:100F500078E7D54876E7D54874E7D54872E7D548AD
:100F600070E7D5486EE781E7B5292AD00EDCA529C0
:100F700021D006DCA12918D0A32918D0A4292ED16C
:100F800017E0A72919D0AC2929D118E0E52920D0EC
:100F900006DCC92917D0CC2917D0D9291FD116E0D2
:100FA000F5291AD0F6291AD115E0C4484AE7C448F1
:100FB00048E7C44846E7C44844E7C44842E7C44851
:100FC00040E7C4483EE7C4483CE7C4483AE7C44861
:100FD00038E7C44836E7C44834E7C44832E745E751
:100FE000ED2920D00CDCAE2917D004DCA52910D0C7
:100FF000AB2922D10FE0CE2911D0D3291DD110E089
:10100000EF2912D0F22912D0F32912D0FD2914D1E0
:1010100011E0B74816E7B74814E7B74812E7B748F2
:1010200010E7B7480EE7B7480CE7B7480AE7B748F4
:1010300008E7B74806E7B74804E717E7D8291AD002
:1010400008DCA5290FD0B1290FD0BD290FD0C829A0
:101050001BD10EE0E32910D0E72910D0F52910D0DC
:10106000F72912D10FE0AC48ECE6AC48EAE6AC4810
:10107000E8E6AC48E6E6AC48E4E6AC48E2E6AC4874
:10108000E0E6AC48DEE6AC48DCE6EFE6CD2922D06F
:101090000CDCC1291BD004DCA82914D0AF2928D12D
:1010A00013E0C82915D0CB2923D116E0E0291AD0A6
:1010B00004DCCE2913D0CF291BD112E0EE2914D0A5
:1010C000FE2916D113E09D48BCE69D48BAE69D482E
:1010D000B8E69D48B6E69D48B4E69D48B2E69D4810
:1010E000B0E69D48AEE69D48ACE69D48AAE69D4820
:1010F000A8E68AE1C52918D008DCB4290DD0B529A5
:101100000DD0B6290DD0BD2917D10CE0D6290ED0AF
:10111000E7290ED0F12910D10DE0934892E69348CB
:1011200090E693488EE693488CE693488AE6934887
:1011300088E6934886E6934884E666E1D0291AD08B
:1011400008DCA8290FD0B4290FD0BA290FD0C429A0
:101150001BD10EE0DF2910D0F12910D0F82910D0D2
:10116000FA2912D10FE088486CE688486AE6884878
:1011700068E6884866E6884864E6884862E6884803
:1011800060E688485EE688485CE63EE1D82914D0EF
:1011900006DCA6290BD0CA290BD0D52915D10AE027
:1011A000DC290CD0DF290CD0FD290ED10BE07F48C3
:1011B00048E67F4846E67F4844E67F4842E67F4867
:1011C00040E67F483EE67F483CE61EE1C52904D064
:1011D000CF2904D0F32906D103E07B4832E67B48CF
:1011E00030E67B482EE610E1D62915D00CDCAF297D
:1011F00013D004DCA42911D0A72910D1F1E0BA2919
:101200000ED0BB290BD1F2E0F9290AD00ADCD8298B
:1012100009D0F72903D1F0E0EBE0E4E0DFE0F4E00F
:10122000E3E0ECE0D6E0E6E0A26700086A590008D7
:1012300032590008A65F00083260000816600008F6
:10124000E265000886590008AA650008C66500081E
:101250004E5900088A5F00088E650008E6480008BD
:10126000A25900080E5B0008F2530008624D000806
:10127000EE620008424E0008DE5100080A470008EE
:101280009E610008AE6400086A4B0008BE68000852
:10129000CE4E000886520008B65B00083E4F00089C
:1012A000BA5A0008BA4500082A4600080257000842
:1012B000E64F000896470008CE470008F24C0008A9
:1012C0009A5B00081E570008A25200085649000801
:1012D000264E00080656000806640008C657000897
:1012E000AE5D0008525800084255000866690008C3
:1012F0006E660008966300082A5B0008FA51000831
:1013000014680008FE650008F26100084E680008D5
:1013100012530008DA590008D6450008525F000849
:10132000D6610008BE590008C65E0008C64900081C
:10133000FA4A0008F86700083A5700083A490008D6
:10134000A64A00080A6300088E50000832680008A8
:10135000324B00088E5700084654000872570008A8
:10136000864B0008C25F0008965500088668000892
:10137000CA5600087A5500085A560008EE5400086C
:101380007A4E0008DA520008CE5C0008665A00085F
:1013900022640008924800084A5300083E480008AA
:1013A000365F00087E540008D25B0008A24B00089C
:1013B000A65800083A650008764F00086246000803
:1013C000DA670008464D00080E540008AA490008D4
:1013D0002A620008FA2914D0FD2916D113E0F94831
:1013E00030E5F9482EE5F9482CE5F9482AE5F948B1
:1013F00028E5F94826E5F94824E5F94822E5F948C1
:1014000020E5F9481EE5F9481CE5D0E2D3292ED0A5
:1014100010DCC72923D006DCB6291CD0BC2918D083
:10142000C62932D119E0CA291BD0CC291BD0D22918
:101430002BD11AE0F52922D006DCE02919D0E429C5
:1014400019D0EC2921D118E0FC291AD0FE291CD191
:1014500019E0E748F6E4E748F4E4E748F2E4E7484F
:10146000F0E4E748EEE4E748ECE4E748EAE4E7487C
:10147000E8E4E748E6E4E748E4E4E748E2E4E7488C
:10148000E0E4E748DEE4E748DCE490E2D32918D062
:1014900008DCB5291FD0BB290DD0C7290DD0CF2915
:1014A0001BD10CE0DA290ED0E1290ED0E7290ED0AD
:1014B000F82912D10DE0DC48C4E4DC48C2E4DC4881
:1014C000C0E4DC48BEE4DC48BCE4DC48BAE4DC4808
:1014D000B8E4DC48B6E4DC48B4E468E2AF2904D000
:1014E000D82904D0DD2906D103E0D848AAE4D84899
:1014F000A8E4D848A6E45AE2AA2906D0D82908D0F8
:10150000DA2904D0EC2908D105E0D3489AE4D3487D
:1015100098E4D34896E4D34894E448E2E02912D012
:1015200006DCA1290BD0A9290BD0DB2915D10CE0B1
:10153000ED290CD0FA290CD0FD290ED10BE0CA48B8
:1015400080E4CA487EE4CA487CE4CA487AE4CA48CF
:1015500078E4CA4876E4CA4874E4FAE3E32914D08C
:1015600006DCAC290BD0BD290BD0BF2915D10AE070
:10157000EE290CD0F4290ED0F7290ED109E0C1488C
:1015800060E4C1485EE4C1485CE4C1485AE4C14833
:1015900058E4C14856E4C14854E4DAE3CB2916D0F4
:1015A00008DCA9290DD0B7290DD0BC290DD0CA2936
:1015B00017D10EE0EB290ED0F6290ED0FD2910D15F
:1015C0000DE0B7483EE4B7483CE4B7483AE4B748D2
:1015D00038E4B74836E4B74834E4B74832E4B748AB
:1015E00030E4B6E3DC2904D0E62904D0FC2906D196
:1015F00003E0B34826E4B34824E4B34822E4A8E374
:10160000DA290ED004DCA32907D0B8290FD106E0CF
:10161000DC2908D0E2290AD107E0AC4812E4AC4842
:1016200010E4AC480EE4AC480CE4AC480AE490E3A7
:10163000A42907D0BC2903D0E42905D1A84801E496
:10164000A84805E4A84805E483E3E62918D008DCA7
:10165000AB290DD0B5290DD0B7290DD0BD2917D193
:101660000CE0F0290ED0F4290ED0F72910D10DE0AE
:101670009E4807E49E4805E49E4805E49E480FE422
:101680009E480DE49E480BE49E4809E49E4807E40A
:101690005FE3EB2918D008DCB0290DD0B7290DD0B5
:1016A000D0290DD0E52917D10CE0F8290ED0FA2960
:1016B0000ED0FD2910D10DE094480FE494480DE4BC
:1016C00094480BE4944809E4944807E4944805E4FA
:1016D000944805E4944805E43BE3DD2920D00CDC84
:1016E000B72917D004DCA12910D0A62922D10FE0F8
:1016F000C62911D0C8291DD110E0EB2912D0ED293F
:1017000012D0F52912D0FD2914D111E0874815E433
:10171000874813E4874811E487480FE487480DE4BD
:1017200087480BE4874809E4874807E4874805E4CD
:10173000874805E40DE3CF2914D006DCA2290BD09D
:10174000C8290BD0CC2915D10AE0D4290CD0E42922
:101750000CD0E8290ED10BE07E4827E47E4825E432
:101760007E4823E47E4821E47E481FE47E481DE451
:101770007E481BE4EDE2C72919D00EDCB92917D049
:1017800006DCB12915D0B52914D0B72913D1F8E05A
:10179000BC2911D0BD290ED1F9E0F5290DD00DDC01
:1017A000D4290CD0D6290BD0E42904D1F7E0F0E0FD
:1017B000E9E0E2E0E3E0FAE0E7E0F4E0D8E0EAE0E4
:1017C000EBE000007E4D00080E4600089E5A00081F
:1017D000265C0008C65000084A5A0008A2680008A3
:1017E0006A680008EE460008164B0008D25400084C
:1017F000B64600085A480008FE570008DE580008A0
:10180000866700082E5A000876640008F660000813
:101810006A670008AE4F0008CA4F0008126100084E
:1018200002490008D65300085266000862540008B6
:101830002E6100089264000856570008FA660008F6
:101840004E6700089A6200084A6900085E4E000868
:101850002E4C00081A5F00085A4F0008465B00082B
:10186000D24D00088A6600088E5E0008C24A000851
:10187000DE5F0008E25700087E4600086E58000848
:10188000B6540008D2620008BE600008924F0008FB
:1018900026550008EA550008664C000882610008D9
:1018A0009E5300081A580008FA5800085A5D0008AC
:1018B000BE4B0008CA48000836580008425C0008C1
:1018C000AE480008F25A0008CE550008524A0008F7
:1018D0000E4D0008064F0008A65100088E4900086A
:1018E000AA570008A260000882690008CA5D0008C3
:1018F000EA4E0008EA470008E6640008866000082F
:10190000C2660008C25100080A4E00086E5F000857
:101910009A4D0008AA50000866610008426300085A
:10192000565E0008326700087265000826630008EA
:1019300066530008B26300089A540008B64D0008C8
:101940006A52000856500008BA5300083E64000866
:10195000DA6000085E550008964E000872490008DB
:10196000065D00085E6300081E6500082647000843
:10197000F8291AD0FD291AD113E0F74804E4F748F2
:1019800016E4F74814E4F74812E4F74810E4F7487F
:101990000EE4F7480CE4F7480AE4F74808E4F7488F
:1019A00006E4F74804E4F74804E4F74804E4D0E127
:1019B000D92910D006DCA22913D0B22907D0C0291A
:1019C00011D106E0E6290AD0F8290CD105E0EF484C
:1019D00004E4EF4804E4EF4804E4EF4800E5EF488E
:1019E000FEE4EF48FCE4B4E1AC2906D0D72906D0E8
:1019F000D82906D0F82908D105E0EA48F0E4EA48F9
:101A0000EEE4EA48ECE4EA48EAE4A2E1B32914D0BF
:101A100006DCA3290BD0A8290BD0AC2915D10AE0EC
:101A2000CB290CD0E2290CD0EA290ED10BE0E148F9
:101A3000D6E4E148D4E4E148D2E4E148D0E4E14826
:101A4000CEE4E148CCE4E148CAE482E1C2290ED008
:101A500006DCA22911D0A7290DD0BB2911D108E09D
:101A6000DE2902D0F3290CD109E0D948B8E4D948DD
:101A7000B6E4D948B4E4D948B2E4D948B0E4D94886
:101A8000AEE466E1DE291AD008DCA2290FD0B52920
:101A90000FD0C2290FD0C8291BD10EE0DF2910D0EA
:101AA000E02910D0F22910D0FB2912D10FE0CE4846
:101AB00096E4CE4894E4CE4892E4CE4890E4CE48F2
:101AC0008EE4CE488CE4CE488AE4CE4888E4CE4802
:101AD00086E43EE1C52928D00EDCB9291FD006DCFA
:101AE000A12916D0A32916D0A7292AD115E0C229E9
:101AF00017D0C42925D116E0D4291CD004DCCD2967
:101B000015D0D0291DD114E0DE2916D0ED2918D129
:101B100015E0BE4864E4BE4862E4BE4860E4BE48E6
:101B20005EE4BE485CE4BE485AE4BE4858E4BE48A1
:101B300056E4BE4854E4BE4852E4BE4850E4BE48B1
:101B40004EE406E1B92912D006DCA1290BD0AF2959
:101B50000BD0B62915D112E0D3290AD0D8290AD042
:101B6000E9290ED109E0B5483AE4B54838E4B5486A
:101B700036E4B54834E4B54832E4B54830E4B54815
:101B80002EE4E6E0E5290ED004DCBB2907D0E429E9
:101B90000FD106E0E62908D0EC290AD107E0AE48CB
:101BA0001EE4AE481CE4AE481AE4AE4818E4AE4861
:101BB00016E4CEE0C52910D006DCA62913D0B3293F
:101BC00007D0C32911D106E0C92908D0D0290CD1EA
:101BD00007E0A64804E4A64804E4A64804E4A648AE
:101BE00004E4A64804E4A64804E4B2E0D82920D0DE
:101BF0000CDCBE2917D004DCB12910D0B42922D1C5
:101C00000FE0CA2911D0CB291DD110E0D92912D05B
:101C1000DA2912D0F12912D0F62914D111E099480D
:101C200018E4994816E4994814E4994812E499484C
:101C300010E499480EE499480CE499480AE499485C
:101C400008E4994806E484E0CF290ED004DCB629E4
:101C500007D0B9290FD106E0DF2908D0FD290AD124
:101C600007E0924804E4924804E4924804E492486D
:101C700004E4924804E46CE0C32924D00CDCB729C6
:101C80001BD004DCB12914D0B52928D113E0BB291D
:101C900015D0BE2923D114E0D8291AD004DCC629D6
:101CA00013D0D0291BD112E0F72914D0FA2916D16C
:101CB00013E0834804E4834804E4834804E483484D
:101CC00004E4824804E4824804E4824804E482484C
:101CD0000CE482480AE4824808E4824806E438E0DA
:101CE000D42924D00CDCB4291BD004DCA12914D0C5
:101CF000AA2928D113E0BC2915D0D32923D114E077
:101D0000E9291AD004DCD62913D0E8291BD112E026
:101D1000EE2914D0F72916D113E0734810E4734864
:101D20000EE473480CE473480AE4734808E473480B
:101D300006E4734804E4734804E4734804E4734815
:101D400004E4734804E404E0D02901D1714817E4A5
:101D500000BF00BF704813E4FE490008E2490008D4
:101D60008A580008965C0008DE6600086E4A000883
:101D7000BE520008E25000087E5B00083A5000089E
:101D800046460008D24600081667000802500008C0
:101D90003A5E0008124C00081E490008EE5B00087D
:101DA000126900087A470008D65A0008FE5E00084B
:101DB000925600081E5000082A540008F6680008D1
:101DC000BA61000836660008224F0008EA6300087E
:101DD0004E600008725000080A550008E6560008D8
:101DE000AA5E00081A660008224800088A51000806
:101DF000225D00080E6200083E5D00082A4D0008C2
:101E00004A4C0008B2550008CE6300082E53000863
:101E1000525100089E4C00083E5600087A630008A4
:101E20001E5E000806480008FA5F0008364A0008EF
:101E30005A640008764800081A5100083252000817
:101E4000B2470008DA4B0008925D0008CA64000837
:101E50006A6000082E6900087A5C00085E5C000871
:101E600016590008025E0008626200080265000858
:101E7000F2450008825A00080A5C0008824C0008FB
:101E8000D64C00089A46000856650008AE56000871
:101E9000FE5000081A4A0008B24E000846620008C8
:101EA0007E6200084E520008E65D0008A666000843
:101EB000DE4A0008C25800084A6100086E51000856
:101EC000F6590008BA4C0008E25E0008625B0008A0
:101ED00042470008EE4D0008765D0008B662000833
:101EE000B25C0008EA5C000822560008F64B0008C5
:101EF0005E470008125A00084E4B00088A4A000844
:101F0000725E00088253000816520008F65200085C
:101F1000BE67000876560008365100082DE9F047E4
:101F200082460F4690461C46002530E0605D8028C2
:101F30002BDB14F805902846691CCDB2205C08B351
:101F4000615D4846FEF71AFF0646B8F1000F06D05D
:101F5000B8F1010F09D0B8F1020F12D10BE03246EF
:101F600039465046FEF7E5FE0BE03246394650460C
:101F7000FEF7B5FE05E0324639465046FEF788FECC
:101F800000BF00BF07F10E00C7B2681CC5B2605D9C
:101F90000028CBD1BDE8F0872DE9F04106460F4679
:101FA000144631463846FEF74CFC072505E02078FC
:101FB000FEF7EDFB641C681EC5B2002DF7D1701C46
:101FC000C6B231463846FEF73CFC072507E02178CB
:101FD00041F04000FEF7DBFB641C681EC5B2002D1B
:101FE000F5D1BDE8F0812DE9F04106460F461446D3
:101FF00031463846FEF725FC072507E02178C9431E
:10200000C8B2FEF7C4FB641C681EC5B2002DF5D132
:10201000701CC6B231463846FEF713FC072508E0AF
:10202000207880F07F084046FEF7B1FB641C681EF4
:10203000C5B2002DF4D1BDE8F0812DE9F04106468E
:102040000F46144631463846FEF7FBFB072505E0F0
:102050002078FEF79CFB641C681EC5B2002DF7D1EA
:10206000701CC6B231463846FEF7EBFB072505E08B
:102070002078FEF78CFB641C681EC5B2002DF7D1DA
:10208000BDE8F0812DE9F04707460C4615461E468F
:10209000A6F1200000F0FF08C8EBC800864901EB5C
:1020A000400925B1012D08D0022D12D10BE04A467E
:1020B00021463846FFF7C1FF0BE04A462146384625
:1020C000FFF791FF05E04A4621463846FFF764FFD7
:1020D00000BF00BFE01DC4B2BDE8F0872DE9F041AC
:1020E00005460F46164629463846FEF7AAFB3446F3
:1020F00004E00020FEF74BFB601EC4B2002CF8D1B8
:10210000681CC5B229463846FEF79BFB344604E0FE
:102110004020FEF73CFB601EC4B2002CF8D1BDE8A5
:10212000F08170B5032200210846FFF7D7FF63480E
:102130000222032103680020FFF7F0FE604B022219
:1021400057210020FFF7EAFE5E48807F5D49497F06
:10215000401A44B2022563E00A2094FBF0F03030CC
:10216000C6B2334600220E212846FFF78BFF0A2015
:1021700094FBF0F100FB11403030C6B23346002230
:1021800015212846FFF77EFF601C44B24D48407F72
:10219000022101EB4000A84229D14A48807F30B992
:1021A000494B002211462846FFF7B8FE14E0454887
:1021B000817FC07F401E814207D1434B9B1D00227F
:1021C00011462846FFF7AAFE06E03F4BDB1C002223
:1021D00011462846FFF7A2FE384800680D2101FB92
:1021E0000403012220212846FFF798FE10E0364B19
:1021F000DB1E002211462846FFF790FE2F4800689C
:102200000D2101FB0403002220212846FFF786FE52
:102210002E4B002274212846FFF780FEA81CC5B271
:10222000082D99DB70BD2748017F0C30405C2549A3
:1022300048770846017F1430405C2249887709209E
:102240002349087000202349087023481B4908606F
:10225000704710B5FFF7E7FF1F4818490860FFF700
:1022600060FFC82000F079F810BD2DE9F04102268A
:102270001A4F042511E031460620FEF7E2FA7624D3
:1022800005E03878FEF783FA7F1C601EC4B2002C8C
:10229000F7D1701CC6B2681EC5B2002DEBD1BDE8E7
:1022A000F08110B50A480078112802D1FFF7DDFF50
:1022B00000BF00BF10BD00008840000804000020DF
:1022C000B7690008C0260020F9B20008AC69000810
:1022D0009D260020000000201A6A0008FC39000832
:1022E00010B56FF0040000F0F4FE2E4800682E498F
:1022F000B0FBF1F02D4908700846007800EB400172
:10230000C1EBC0104FF6FF7101EAC00028490880F8
:1023100010BD0146254A12784A434FF0E0235A6126
:1023200000229A611A46126942F001021A6100BF46
:102330004FF0E022106900F001021AB100F480327F
:10234000002AF5D04FF0E022126922F001024FF08E
:10235000E0231A6100229A6170470146144A1288EC
:102360004A434FF0E0235A6100229A611A461269EB
:1023700042F001021A6100BF4FF0E022106900F044
:1023800001021AB100F48032002AF5D04FF0E022A9
:10239000126922F001024FF0E0231A6100229A61D3
:1023A000704700000800002000127A00A0260020DC
:1023B000A226002000BF704700BF4A4A128802F0E0
:1023C0004002002AF9D0C2B2464B1B1D1A8070474A
:1023D00010B586B00446012144F2040000F0B8FBB9
:1023E0004FF40070ADF8140003208DF8160018208B
:1023F0008DF8170005A93C4800F0EEF84FF4806016
:10240000ADF8140004208DF8170005A9364800F037
:10241000E3F825208DF8000003208DF801008DF8E9
:10242000020001208DF80300684600F008FE0194C8
:102430000020ADF80800ADF80A00ADF80C00ADF8CA
:1024400010000C20ADF80E0001A9264800F027FC72
:10245000012240F22551234800F0B9FC0121214816
:1024600000F0A9FC06B010BD10B540F225511D4882
:1024700000F09CFD10B31B4800F025FDC4B21B48C2
:10248000008800F40040C8B91848008800F4804073
:1024900060B10A2C03D000201449088020E01348C2
:1024A000008840F400401149088019E00D2C06D145
:1024B0000E48008840F480400C49088010E00B482A
:1024C0000088C0F30D000A490C5408480088401CDD
:1024D0000649088008460088C72801DD00200880DA
:1024E00010BD00000038014000080140A82600206F
:1024F000E02600200648804706480047FEE7FEE742
:10250000FEE7FEE7FEE7FEE7FEE7FEE7FEE7FEE7A3
:102510002F0400083101000810B50446CC4884425D
:1025200008D10121042000F02DFB0021042000F03F
:1025300029FB46E0C748844208D10121082000F069
:1025400021FB0021082000F01DFB3AE0C248844234
:1025500008D10121102000F015FB0021102000F00F
:1025600011FB2EE0BD48844208D10121202000F05B
:1025700009FB0021202000F005FB22E0B84884423E
:1025800008D10121402000F0FDFA0021402000F098
:10259000F9FA16E0B348844208D10121802000F006
:1025A000F1FA0021802000F0EDFA0AE0AE48844202
:1025B00007D10121801500F0E5FA0021A01500F0F7
:1025C000E1FA10BD10B50121084600F0DBFA002148
:1025D000012000F0D7FA10BD2DE9F0410246002598
:1025E0000026002000230024002791F803C00CF0EF
:1025F0000F0591F803C00CF0100CBCF1000F03D0D4
:1026000091F802C04CEA050591F800C0BCF1000F3A
:1026100031D0146800202BE04FF0010C0CFA00F3CD
:10262000B1F800C00CEA03069E4220D183004FF0AF
:102630000F0C0CFA03F7BC4305FA03FC4CEA040444
:1026400091F803C0BCF1280F06D14FF0010C0CFA31
:1026500000FCC2F814C00AE091F803C0BCF1480FB6
:1026600005D14FF0010C0CFA00FCC2F810C0401C60
:102670000828D1D31460B1F800C0BCF1FF0F34DDDD
:10268000546800202EE000F1080C4FF0010808FA11
:102690000CF3B1F800C00CEA03069E4221D183007E
:1026A0004FF00F0C0CFA03F7BC4305FA03FC4CEA9D
:1026B000040491F803C0BCF1280F05D100F1080C07
:1026C00008FA0CF8C2F8148091F803C0BCF1480F66
:1026D00007D100F1080C4FF0010808FA0CF8C2F815
:1026E0001080401C0828CED35460BDE8F0814FF61E
:1026F000FF710180022181700421C1707047024680
:10270000002093680B400BB1012000E000207047CF
:102710000146886880B2704702460020D3680B40AB
:102720000BB1012000E0002070470146C86880B26C
:10273000704701617047416170470AB1016100E073
:1027400041617047C16070474FF480320A43826133
:102750008161826182698269704702460020434B31
:1027600018684FF68073184040EA021008433F4B48
:10277000186070473E49C8617047F0B50A460023AB
:1027800000240021002500F00046B6F1004F02D1E0
:10279000364EF16901E0354E7168C0F3034583B2EE
:1027A00000F44016B6F5401F08D121F070612F4E9D
:1027B000766826F070662D4F7E6012E000F4801679
:1027C000B6F5801F06D1032606FA05F4A14341F0B1
:1027D000706106E0460D360103FA06F6B14341F09A
:1027E000706122B1460D360103FA06F6314300F05E
:1027F0000046B6F1004F02D11C4EF16101E01B4EC4
:102800007160F0BD30B500228B071C0F0F2303FA57
:1028100004F2164B08338C1053F824309343134CB6
:1028200008348D1044F8253023468C1053F824309A
:102830008C07240F00FA04F423430C4C08348D1049
:1028400044F8253030BD0A49DC310860704700008B
:1028500000080140000C014000100140001401403C
:1028600000180140001C0140002001400000014010
:1028700000002042DF48006840F00100DD490860A8
:1028800008464068DC490840DA4948600846006864
:10289000DA490840D74908600846006820F48020DB
:1028A00008600846406820F4FE0048604FF41F00AE
:1028B00088607047CF49096821F48031CD4A1160A2
:1028C0001146096821F480211160B0F5803F03D0E2
:1028D000B0F5802F0ED106E0C649096841F4803179
:1028E000C44A116007E0C349096841F4A021C14A04
:1028F000116000E000BF00BF704710B50146002224
:10290000002300204A11012A02D1BA4C236806E0B4
:10291000022A02D1B74C236A01E0B64C636A01F087
:102920001F02012494401C400CB1012000E0002053
:1029300010BD38B5002000900024002500BF3120D4
:10294000FFF7DBFF05460098401C00900098B0F5AB
:10295000A06F01D0002DF2D03120FFF7CEFF08B1DB
:10296000012400E00024204638BD01460020A14A91
:10297000106820F0F80040EAC10010607047A049DC
:1029800008607047024600209A4B586820F47C107B
:1029900042EA01031843974B58607047984908660C
:1029A000704701460020934A506820F00300084316
:1029B000506070478F48406800F00C007047014637
:1029C00000208C4A506820F0F000084350607047A7
:1029D00001460020874A506820F4E06008435060B8
:1029E000704701460020834A506820F4605040EA56
:1029F000C1005060704729B17E4A527A02437D4B34
:102A00005A7204E07B4A527A82437A4B5A72704778
:102A10007B49D8310860704701460020754A5068EC
:102A200020F440400843506070470021714A203232
:102A30001170704A82F82010012802D004280AD1AF
:102A400004E001216B4A2032117005E00521694A3A
:102A50002032117000E000BF00BF70476949086074
:102A600070476449096A0143624A116270476549C7
:102A700044390860704730B500210022002400234B
:102A80005C4D6D6805F00C0121B1042905D00829C1
:102A900023D105E05C4D056022E05B4D05601FE041
:102AA000544D6D6805F47012524D6D6805F4803414
:102AB000022505EB92421CB9544D554305600BE0CD
:102AC0004C4D6D6805F400351DB1504D5543056002
:102AD00002E04D4D5543056002E04B4D056000BFDF
:102AE00000BF444D6D6805F0F0010909484D6B5C6D
:102AF0000568DD4045603F4D6D6805F4E061090AF9
:102B0000434D6B5C4568DD4085603A4D6D6805F46A
:102B10006051C90A3E4D6B5C4568DD40C560354D6E
:102B20006D6805F44041890B3A4D6B5CC568B5FB97
:102B3000F3F5056130BD29B12E4A526902432D4B90
:102B40005A6104E02B4A526982432A4B5A6170470A
:102B500029B1284A92690243264B9A6104E0254A2A
:102B600092698243234B9A61704729B1214AD26905
:102B70000243204BDA6104E01E4AD26982431D4BB6
:102B8000DA61704729B11B4AD2680243194BDA60F7
:102B900004E0184AD2688243164BDA60704729B1C4
:102BA000144A12690243134B1A6104E0114A126974
:102BB0008243104B1A6170471249403908607047D0
:102BC0000F49C86470470B49C87170470948406A8B
:102BD00040F0807007494862704701460020054A6E
:102BE00092680A400AB1012000E0002070470149C4
:102BF00088727047001002400000FFF8FFFFF6FEE9
:102C0000000042428004424200127A0000093D0066
:102C1000AA260020BA26002010B50446F7488442B0
:102C200009D101218803FFF7ADFF00214FF4804057
:102C3000FFF7A8FF32E0F248844209D1012148049D
:102C4000FFF7ADFF00214FF40030FFF7A8FF25E0AC
:102C5000EC48844209D101218804FFF7A0FF00213C
:102C60004FF48020FFF79BFF18E0E748844209D12A
:102C70000121C804FFF793FF00214FF40020FFF764
:102C80008EFF0BE0E148844208D101210805FFF7DF
:102C900086FF00214FF48010FFF781FF10BD2DE962
:102CA000F04786B005460E460024A24600BFA14666
:102CB0000027B08900B100BF2F462C8A4CF6FF7068
:102CC0000440F08804432C82AC894EF6F310044093
:102CD000B08831890843718908430443AC81AC8AC8
:102CE0004FF6FF400440B0890443AC8201A8FFF7CF
:102CF000C2FEC248874202D1DDF810A001E0DDF833
:102D00000CA0A88900F4004040B10AEBCA0000EB17
:102D10000A1031684900B0FBF1F807E00AEBCA007D
:102D200000EB0A1031688900B0FBF1F86420B8FBB1
:102D3000F0F004012009642101FB1089A88900F446
:102D4000004040B1322000EBC900B0FBF1F000F0D0
:102D50000700044308E0322000EB09106421B0FBB7
:102D6000F1F000F00F0004432C8106B0BDE8F087BD
:102D70004FF41651016000218180C18001810C2136
:102D8000418100218181704710B502460020108AE0
:102D90004FF2FF0318400B884C8823438C88234351
:102DA000CC8823431843108210BD0021018041804C
:102DB0008180C180704721B1828942F400528281B2
:102DC00004E082894DF6FF731A4082817047F0B5A6
:102DD0000346002400260025002040F66A17B94269
:102DE00000D100BF1846C1F3421401F01F060127AD
:102DF00007FA06F5012C01D10C3004E0022C01D1B8
:102E0000103000E014301AB107682F43076002E069
:102E10000768AF430760F0BD1AB1838A0B43838212
:102E200002E0838A8B4383827047028A4FF6F073F5
:102E30001A400282028A0A430282704782894FF254
:102E4000FF731A40828182890A438281704721B1CF
:102E5000828942F00202828104E082894FF6FD738A
:102E60001A4082817047028A4FF6DF731A4002824D
:102E7000028A0A430282704721B1028A42F48042E8
:102E8000028204E0028A4BF6FF731A400282704706
:102E900002460020B1F5007F00D100BF13880B402F
:102EA0000BB1012000E00020704730B504460D460C
:102EB000C5F30800A08000BF80212046FFF7E8FF8F
:102EC0000028F9D030BD01468888C0F3080070475B
:102ED000818941F0010181817047028BD2B2028366
:102EE000028B42EA012202837047028B02F47F4286
:102EF0000283028B0A430283704721B1828A42F027
:102F00002002828204E0828A4FF6DF731A408282B6
:102F1000704721B1828A42F01002828204E0828AE4
:102F20004FF6EF731A408282704721B1828A42F0D5
:102F30000802828204E0828A4FF6F7731A40828286
:102F4000704721B1828942F40042828103E0828984
:102F5000C2F30E028281704721B1828A42F400627C
:102F6000828204E0828A4FF2FF731A4082827047A5
:102F7000828A4FF6FB731A408282828A0A438282D7
:102F8000704721B1828A42F00202828204E0828A82
:102F90004FF6FD731A408282704701F40072B2F559
:102FA000007F00D100BFCA430280704770B502465F
:102FB000002400230025002040F66A16B14200D10B
:102FC00000BFC1F3421501F01F03012606FA03F307
:102FD000012D02D19689334006E0022D02D1168AD6
:102FE000334001E0968A33400C12012606FA04F4BD
:102FF0001688344063B15CB101200AE0003801401A
:103000000044004000480040004C00400050004098
:10301000002070BD10B50022002340F66A14A142C2
:1030200000D100BF0A1201249440A3B2DC43048003
:1030300010BD000031490143314A1160704770B53D
:10304000002100230F22C47804B32D4C246804F41B
:10305000E064C4F5E064210AC1F10403CA40447885
:1030600004FA03F18478144021430901254C0678C1
:10307000A155047804F01F050124AC4005786D11BA
:10308000AD0005F1E025C5F8004109E0047804F041
:103090001F050124AC401C4D0678761145F82640EA
:1030A00070BD1A4A0A400243154B1B1F1A60704735
:1030B00039B1134A121D12680243114B1B1D1A60CD
:1030C00006E00F4A121D126882430D4B1B1D1A6049
:1030D0007047042808D14FF0E021096941F004014C
:1030E0004FF0E022116107E04FF0E021096921F083
:1030F00004014FF0E0221161704700000000FA0562
:103100000CED00E000E400E080E100E080FFFF1F44
:10311000064C074D06E0E06840F0010394E8070024
:1031200098471034AC42F6D3FDF706F80CB6000809
:103130002CB6000870B58C1810F8015B15F0070369
:1031400001D110F8013B2A1106D110F8012B03E040
:1031500010F8016B01F8016B5B1EF9D12B0705D448
:103160000023521E0DD401F8013BFAE710F8013B91
:10317000CB1A921C03E013F8015B01F8015B521EAD
:10318000F9D5A142D8D3002070BD02E008C8121FB3
:1031900008C1002AFAD170477047002001E001C140
:1031A000121F002AFBD170474D696E6953544D338D
:1031B0003220494943205445535400003F00000049
:1031C000060000005B0000004F00000066000000E9
:1031D0006D0000007D000000070000007F0000007F
:1031E0006F0000000000000000000000002F000041
:1031F00000000700070000147F147F1400242A7FBA
:103200002A12006264081323003649552250000038
:103210000503000000001C224100000041221C00A8
:103220000014083E08140008083E0808000000A02A
:103230006000000808080808000060600000002026
:1032400010080402003E5149453E0000427F400004
:10325000004261514946002141454B31001814128A
:103260007F10002745454539003C4A494930000157
:103270007109050300364949493600064949291EA6
:103280000000363600000000563600000008142208
:103290004100001414141414000041221408000208
:1032A0000151090600324959513E007C1211127C2D
:1032B000007F49494936003E41414122007F41415A
:1032C000221C007F49494941007F09090901003E4C
:1032D0004149497A007F0808087F0000417F41008A
:1032E000002040413F01007F08142241007F404000
:1032F0004040007F020C027F007F0408107F003EE8
:103300004141413E007F09090906003E4151215ECD
:10331000007F091929460046494949310001017FCA
:103320000101003F4040403F001F2040201F003F60
:103330004038403F00631408146300070870080712
:1033400000615149454300007F41410000552A5525
:103350002A55000041417F000004020102040040A0
:1033600040404040000001020400002054545478C2
:10337000007F4844443800384444442000384444E2
:10338000487F00385454541800087E090102001880
:10339000A4A4A47C007F080404780000447D4000BD
:1033A000004080847D00007F102844000000417FA1
:1033B0004000007C04180478007C0804047800387D
:1033C0004444443800FC242424180018242418FC05
:1033D000007C0804040800485454542000043F446E
:1033E0004020003C4040207C001C2040201C003C31
:1033F0004030403C004428102844001CA0A0A07C81
:10340000004464544C4414141414141400000000B8
:10341000000000000000000000000000000000F8B4
:1034200000000000000000333000000000100C0617
:10343000100C0600000000000000000040C07840B2
:10344000C0784000043F04043F040400007088FC7E
:1034500008300000001820FF211E0000F008F000D6
:10346000E018000000211C031E211E0000F0088847
:10347000700000001E2123241927211010160E00B1
:10348000000000000000000000000000000000E05C
:103490001804020000000007182040000002041871
:1034A000E00000000040201807000000404080F0CD
:1034B000804040000202010F01020200000000F003
:1034C000000000000101011F0101010000000000D7
:1034D0000000000080B0700000000000000000004C
:1034E00000000000000101010101010100000000D5
:1034F000000000000030300000000000000000006C
:1035000080601804006018060100000000E0100848
:103510000810E000000F102020100F00001010F81D
:10352000000000000020203F20200000007008085C
:1035300008887000003028242221300000300888DC
:10354000884830000018202020110E000000C02004
:1035500010F8000000070424243F240000F8088825
:10356000880808000019212020110E0000E01088B2
:1035700088180000000F112020110E0000380808E4
:10358000C83808000000003F0000000000708808F4
:1035900008887000001C222121221C0000E0100875
:1035A0000810E0000000312222110F00000000C0CE
:1035B000C00000000000003030000000000000806B
:1035C000000000000000806000000000000080405B
:1035D0002010080000010204081020004040404074
:1035E00040404000040404040404040000081020C7
:1035F000408000000020100804020100007048080C
:103600000808F0000000003036010000C030C82873
:10361000E810E0000718272423140B000000C0382E
:10362000E0000000203C23020227382008F88888A8
:1036300088700000203F202020110E00C0300808B4
:1036400008083800071820202010080008F808088B
:103650000810E000203F202020100F0008F8888884
:10366000E8081000203F20202320180008F8888850
:10367000E8081000203F200003000000C0300808C8
:103680000838000007182020221E020008F8080051
:103690000008F808203F210101213F20000808F818
:1036A000080800000020203F20200000000008083B
:1036B000F8080800C08080807F00000008F888C0FB
:1036C00028180800203F20012638200008F80800AC
:1036D00000000000203F20202020300008F8F800E3
:1036E000F8F80800203F003F003F200008F830C0F5
:1036F0000008F808203F200007183F00E0100808E5
:103700000810E0000F10202020100F0008F8080813
:103710000808F000203F210101010000E010080826
:103720000810E0000F18242438504F0008F888884B
:1037300088887000203F2000030C3020007088082B
:10374000080838000038202121221C00180808F839
:10375000080818000000203F2000000008F80800BA
:103760000008F808001F202020201F00087888008B
:1037700000C83808000007380E010000F80800F8FB
:103780000008F800033C0700073C030008186880A5
:103790008068180820302C03032C30200838C8001B
:1037A000C83808000000203F20000000100808086A
:1037B000C83808002038262120201800000000FE0C
:1037C000020202000000007F40404000000C30C0B8
:1037D00000000000000000010638C00000020202E4
:1037E000FE000000004040407F0000000000040296
:1037F00002020400000000000000000000000000C1
:1038000000000000808080808080808000020204B0
:1038100000000000000000000000000000008080A8
:10382000808000000019242222223F2008F8008016
:1038300080000000003F112020110E0000000080D9
:1038400080800000000E1120202011000000008068
:103850008088F800000E112020103F20000080809A
:1038600080800000001F222222221300008080F0AE
:10387000888888180020203F2020000000008080D9
:1038800080808000006B94949493600008F800801E
:1038900080800000203F210000203F200080989879
:1038A000000000000020203F2020000000000080D9
:1038B0009898000000C08080807F000008F8000019
:1038C00080808000203F24022D302000000808F86E
:1038D000000000000020203F202000008080808029
:1038E00080808000203F20003F20003F80800080BB
:1038F00080800000203F210000203F2000008080C9
:1039000080800000001F202020201F008080008079
:103910008000000080FFA12020110E000000008028
:1039200080808000000E112020A0FF808080800019
:103930008080800020203F21200001000000808046
:10394000808080000033242424241900008080E03B
:10395000808000000000001F202000008080000008
:1039600000808000001F202020103F2080808000E9
:103970000080808000010E300806010080800080F9
:10398000008080800F300C030C300F00008080001E
:10399000808080000020312E0E3120008080800049
:1039A0000080808080818E701806010000808080F9
:1039B000808080000021302C222130000000000097
:1039C000807C020200000000003F40400000000038
:1039D000FF00000000000000FF0000000002027C69
:1039E000800000000040403F000000000006010190
:1039F000020204040000000000000000000000803B
:103A0000C0E0F0F0F8F8F8F8F8F8F8F8F0F0E0E0D6
:103A1000C000000000F0F0F0F0F0F000000000F056
:103A2000F0F0F0F0F0F0F0F0800000000000000096
:103A300000E0F0F0F0F0F0F0F0F0000000F0F0F056
:103A4000F0F0F0F0000000F0F0F0F0F0F0F0F0F046
:103A5000F0F0F0F0E0E0C08000000000F0F0F0F0E6
:103A6000F0F0F0F0F0F0F0F0F0F0F0F0F0F0000036
:103A700000000000003F7FFFFFFFFFFFF8F8F0F0BD
:103A8000F0E0E1C1C3830700000000FFFFFFFFFF7C
:103A9000FF00000000FFFFFFFFFF3FFFFFFFFFFEF3
:103AA000F8C00080E0FCFFFFFF3FFFFFFFFFFFFFCC
:103AB000000000FFFFFFFFFFFFFF000000FFFFFF10
:103AC000FFFFFFC1C1C1C3C3F7FFFFFFFF7F1E00A0
:103AD0000000FFFFFFFFFFFFFFE0E0E0E0E0E0E0CD
:103AE000E0E00000000000000000F8F0E0E0C0C1ED
:103AF000C1C3C3C7C7C7EFFFFFFFFFFFFF3C000005
:103B000000FFFFFFFFFFFF00000000FFFFFFFFFFC0
:103B10000000031F7FFFFFFFFFFFFF7F0F03000079
:103B2000FFFFFFFFFFFF000000FFFFFFFFFFFFFFA2
:103B3000000000FFFFFFFFFFFF07070707073FFF2A
:103B4000FFFFFEFCC0000000FFFFFFFFFFFFFFC103
:103B5000C1C1C1C1C1C1C1C1C0C0000000000000DD
:103B60000001010303070707070707070707030308
:103B70000101000000000007070707070700000019
:103B800000070707070700000000000307070707F3
:103B900001000000000007070707070700000007F3
:103BA00007070707070700000007070707070700C1
:103BB00000000000000707070707070000000707CD
:103BC0000707070707070707070707070707070785
:103BD0000000000000101010100000800000000025
:103BE0000000000000003E4141413E0000027F0015
:103BF00000006651514946002249494936003028A3
:103C0000247F20003745454539003E4949493A005F
:103C100001017905030036494949360026494949D9
:103C20003E000010101010000080000000003C1A40
:103C30000A42423C1010180808000C426272423CD2
:103C40006651514946006651514946007C12111295
:103C50007C007F49494936003E41414122007F4175
:103C600041413E007F49494941007F09090901005E
:103C70003E4149493A007F0808087F0000417F41E2
:103C800000000041413F0100007F18244200007FF6
:103C9000404040007F017F017F00007F08107F00CF
:103CA0003E4141413E00007F09090E003E41412155
:103CB0005E007F0919294600264949493200010161
:103CC0007F0101003F4040403F001F2040201F0077
:103CD0000F700E700F00631408146300030478045F
:103CE00003006151494543000000008080C0C0408E
:103CF000C0C080800000000000FCFFFF0F0100003A
:103D000000010FFFFFFC0000001F7FFFF8C08000D4
:103D100080C0FCFF3F0F0000000000000001010117
:103D2000010100000000000000000000000080C051
:103D3000C000000000000000000000010101FFFFC2
:103D4000FF00000000000000000000000000FFFF76
:103D5000FF800000000000000000000101010101DF
:103D6000010101010100000000000080C0C04040CE
:103D700040C0C08000000000000E1F1F1F00000098
:103D800080E0FF7F3F0E000000C0E0F0B89C8E870F
:103D90008381C0E0F0700000000101010101010118
:103DA000010101010100000000008080C04040408E
:103DB000C0C08080000000000002070707404040AC
:103DC000E0FFBF9F0F0000000070F0F0F000000067
:103DD0008081FFFF7F1C0000000000000101010145
:103DE0000101000000000000000000000000008051
:103DF000E0E0E00000000000000080E0783C0F07F9
:103E0000FFFFFF000000000004070705040404840E
:103E1000FFFFFF8404040000000000000001010116
:103E200001010101010100000000C0C0C0C0C0C00C
:103E3000C0C0C0C0C00000000000FFFFCF60202055
:103E40002060E0C0800000000038F8F9F8000000B1
:103E500080C0FFFF7F1F0000000000000101010182
:103E600001010100000000000000000080C0C0400F
:103E700040C0C0C08000000000F8FEFFCF6160209D
:103E80002063E3C3C3000000001F7FFFF1C0800078
:103E90000080F3FF7F3F00000000000001010101EE
:103EA00001010100000000000000C0C0C0C0C0C08F
:103EB000C0C0C0C0C040000000070703010080E090
:103EC000F07C0F030100000000000000C0FCFFFFB9
:103ED00007000000000000000000000000010101D8
:103EE000000000000000000000008080C0C04040D2
:103EF00040C0C08000000000000E3FBFF1E0E0C005
:103F0000C0E0F33F1F0E0000007EFFFF8180000035
:103F10000183C7FF7E3C0000000000000101010199
:103F2000010101000000000000008080C0C040408E
:103F300040C080800000000000FEFFFF8300000002
:103F40000080EFFFFFFC00000000E1E3E38302825A
:103F500083E3FF7F1F070000000000010101010152
:103F60000100000000000000000000000000000050
:103F70000000000000000000000000000000000041
:103F80000000000000000000000000000000000031
:103F90000000000000000000000000000000000021
:103FA0000000000000000000000000000000000011
:103FB00001010101010100000000000000000000FB
:103FC0000030300000000000000000000000000091
:103FD000000000000000000000E010080810E000F1
:103FE000000F102020100F00001010F8000000003B
:103FF0000020203F20200000007008080888700082
:104000000030282422213000003008888848300001
:104010000018202020110E000000804020F8000031
:1040200000070404243F240000F8088888080800DA
:104030000019212020110E0000E0108888081000CF
:10404000000F112020110E0000380808C8281800A1
:104050000000003F00000000007088080888700021
:10406000001C222121221C0000E010080810E000A2
:104070000010212222110F00000000F000000000BB
:104080000101011F0101010000000000000000000B
:10409000000000000000000000FC00000000000C18
:1040A0000C0000000008040A0402000000000000E8
:1040B000000020A07820F82000020F020F0202006A
:1040C00000000000000000000000000000007088F8
:1040D00070C0308800000806010708078070C830EB
:1040E0008080000708090E0B080410160E0000005F
:1040F0000000000000000000000000F00C020000C2
:104100000000030C100000020CF000000000100C76
:10411000030000002020C0F8C0202001010007009B
:104120000101404040F84040400000000300000012
:1041300000000000000000202C1C00000000008097
:10414000808080800000000000000000000000006F
:10415000000000000C0C0000000000000080601C4B
:104160000200100E0100000000F0080808F0000036
:10417000070808080700001010F800000000000001
:104180000F00000000300808887000000C0A0908C1
:10419000080000300888887000000608080807003A
:1041A00000C02010FC0000010202020F020000F813
:1041B000484848880000060808080700E0908888FA
:1041C00088100007080808080700003808886818E1
:1041D000000000000F0000007088888888700007C9
:1041E0000808080807007088888888F00004080814
:1041F000080403000000606000000000000C0C00D8
:104200000000000000400000000000201800000036
:104210000040A0100804000000000102040020205B
:1042200020202020000101010101010000040810EC
:10423000A040000004020100000038040484443857
:104240000000000C0D000000E010C828E810E0039A
:10425000040B0A090A0500E0100810E000000F0135
:1042600001010F0008F8484848B000080F08080886
:104270000700E010080808380003040808080400D4
:1042800008F8080810E000080F080804030008F800
:104290008888C81800080F0808090C0008F88888E2
:1042A000C80810080F0800010000E01008080838CE
:1042B000000304080809070108F8888088F808083E
:1042C0000F0800080F08000808F808080000080890
:1042D0000F080800000808F80808003020201F0018
:1042E000000008F888C0281808080F08000B0C0800
:1042F00008F80800000000080F0808080C0008F87B
:10430000788078F808080F000F000F0808F838C008
:1043100008F808080F0801060F00E010080810E070
:10432000000304080804030008F88888887000085F
:104330000F0800000000E010080810E00003040A65
:104340000A1C130008F848C8483000080F0800038A
:104350000C0800304888881800000C08080807007E
:10436000180808F80808180000080F08000008F8E6
:10437000080008F8080007080808070008F80800FF
:1043800008F8080000030C03000008F800F800F823
:104390000800010F000F010008186880681808085D
:1043A0000C0B000B0C08081868806818080000083F
:1043B0000F08000010088848380800080E0908088F
:1043C0000C00000000FE0202000000001F101000A0
:1043D000000C30C0000000000000010618000002C0
:1043E00002FE0000000010101F000000000002008C
:1043F00000000000000000000000000000000000BD
:1044000000202020202020200000020000000000CA
:104410000000000000000080404040800000040ACE
:1044200009090F0808F84040408000000F080808FC
:1044300007000080404040C0000007080808040052
:104440000080404048F80000070808080F08008076
:104450004040408000000709090905004040F0483D
:1044600048180000080F0808000000804040C040C5
:1044700000001D2A2A29100008F88040408000080A
:104480000F0800080F08004040C80000000008089E
:104490000F08080000004040C80000002020201F36
:1044A000000008F80040C04000080F0A030C080094
:1044B000000808F80000000008080F08080040C0C5
:1044C00040C0408000080F000F000F0840C080402F
:1044D000408000080F0800080F080080404040801E
:1044E000000007080808070040C040404080002046
:1044F0003F28080807000080404040C0000007082F
:1045000008283F204040C08040400000080F0800BD
:10451000000000804040404000000809090A0400F3
:10452000004040F04040000000000708080040C084
:10453000000040C00000070808080F0840C0400005
:1045400040C0400000070807000040C000C000C095
:104550004000030C030C030040C00040C0400008B2
:104560000C0B030C080040C0400040C0402020332A
:104570000C03000000404040C0400000080C0B0845
:104580000800000000FE0202000000001F101000E2
:10459000000000FF0000000000003F0000000002DB
:1045A00002FE0000000010101F00000000020101C8
:1045B0000204040000000000000002123257123210
:1045C000D2120A4F3A0A02001111090905033F03EA
:1045D0000509091111000000FC252624FC242625CC
:1045E000FC0000000808090909093F090909090830
:1045F00008000000FE22222222FE22222222FE00A9
:10460000201807010101011F010121213F000000C5
:10461000FC444444454644444444FC0020180700FC
:104620000000000000000000000090905436159C2F
:10463000945414365C9090002028292925141412D3
:104640000908040000004A2C987F182C4A4030CFFB
:1046500008F80800212517190917200020130C134A
:1046600020003412D35256525A5453D216123200EA
:1046700000003F151515151515153C0000004444A4
:10468000FC4400FE9292FE9292FE0000080807048D
:10469000202424243F242424200000E02F29292939
:1046A000292929292FE000002027101008040308D9
:1046B0000810102700000808FF880048C8487F48F5
:1046C000C808000021213F002020110A040A1120FF
:1046D000200010101010D030FF30D0121410100035
:1046E0000804020100003F0000010204080080826B
:1046F00082FFAAAAAAAAAAFF8282800024222124D9
:1047000024243E2424242122240008080888681830
:10471000FF186888080808000402010404043F0424
:104720000404010204002021E60040A09E8282824F
:104730009EA0200000001F0824201314081412213A
:104740002000002FA9A9AFA9F9A9AFA9A92F00009E
:1047500020203F2020203C2020203F202000041843
:1047600080FF001010907F90121410000201003F93
:1047700020100C0300030C102000848444442454B3
:104780008F142444448484002018001C2020222CF0
:104790002030000418004444A4948C84BF848C947A
:1047A000A444440020202F2A2A2A2A2A2A2A2F20F9
:1047B00020002021E60008F497949494F404FC006F
:1047C00000001F08040F0404040427201F0000C475
:1047D000445464454644645444444000201F00004F
:1047E0000000000000000000000000003E22222225
:1047F000222222223E0000003F111111113F003FF2
:10480000111111113F002010FC030454545556544B
:104810005454040000003F00003F11111111113FDA
:1048200000000000FC54565554545454FC00000041
:104830002018011D2121232D213101041800040419
:10484000047454555654547404040400003F010188
:104850001D1515151D01213F000098543318000245
:10486000FE0262524EC000001111090920180722F1
:104870001408162120004020F807E048442B9252EB
:104880002A46400000003F0007202929141209048D
:10489000020004C444447C2010EF080808F8080013
:1048A000003F1008042020100B040B10200046329B
:1048B0000272828AD3A2928AC212660002021D117B
:1048C00010101E1010103C00000084E45C44C40270
:1048D0007A4242427E40C000001F08081F020202C6
:1048E000020222201F000808FF88005C44C47546AD
:1048F00044C45C0021213F00002022130C040A1153
:1049000020001028E7240064DC1054FF547C1000C1
:1049100001011F2914081710253F25252400102800
:10492000E7242400F21410DF1014F20001013F11FB
:10493000092027100807081027000C042424242528
:10494000E624242424040C0020100F1020203F22F1
:104950002222222020000000FE02020202020202A5
:104960000202020020180700000000000000000002
:10497000000004E424AC7425262474AC24E4040070
:10498000003F01000F0909090F20213F000008081E
:10499000FF8800FC00021C00FF00000021213F00F6
:1049A000000F2412080601063800101008282422DF
:1049B000212224280810100000003F1111111111AC
:1049C00011113F0000000000E020203F2424242497
:1049D000E4040000201803020A32020A320203082B
:1049E00030000C04448414250604F40404040C0070
:1049F00002222212120A0603060A12220200FC44B4
:104A000044FC000848880808FF0808000F04040F49
:104A10000000000120203F0000004042CC00202286
:104A200022E222222220200020100F1024262524FA
:104A30002425262C20008844E2190020222222E28C
:104A40002222200000003F0000000020203F000044
:104A5000000008C8FF4880F45F5454545FF4040019
:104A600001003F002425150D070D152524000848D9
:104A700048C848480808FF08090A08001010101F15
:104A800008080800010608103C0000FC2424262524
:104A90002424242424FC0000003F111111111111C1
:104AA0001111113F00002022E22222200808FF08F5
:104AB0000808F80004070404052E100C0300202049
:104AC0001F000808FF884800F808090E08080800B9
:104AD00021213F002018070000000000000000FF17
:104AE000052525FD252525FD25270000201F010181
:104AF0003F21130509151321210000F848484848B3
:104B0000FF48484848F800000007020202021F223E
:104B100022222223380008C8FF488800FE02020231
:104B2000FE00000001003F002018070000001F20C9
:104B300038004888090EE8005E50D05F50505E0093
:104B40001013100B08003F011F011F213F004041BF
:104B500041414141E15149454341400000000000CD
:104B600020203F00000000000000109C53300C008B
:104B7000FCA4A5A6A4A4BC001111110909023F04BC
:104B80001F041F243F008C4475A6A4640C00F21A75
:104B9000D612F20004023D14143D02201708070843
:104BA00037000404FC04040008FF080808F80000AB
:104BB0000404030222100C030020201F000010A494
:104BC000440424B56E24940444A410000504040491
:104BD00005053F050507040405000000FE024242EA
:104BE00042FA424242420200201807202020203F81
:104BF0002020222C2000645CE744440024A4742F6D
:104C00002424240004043F020200010109112905A3
:104C100003004042CC0004F49494FF9494F4040004
:104C200020100F10282422213F21222428008887C9
:104C3000FC848400FE22222222E20200201C0304C3
:104C400018003F22222222232000088868FF48887B
:104C500000FE22222222FE000201003F0000003F4F
:104C6000111111113F0020420488004464544D4644
:104C70005464C4000018060120100F001F001F20FC
:104C80003000844424F49C9794949494F404040095
:104C90000000003F0404040424243F00000044A456
:104CA0001506D4244030CF08887808001008050283
:104CB000051820100906091020002010FC0304F438
:104CC00054545F5454F4040000003F00203F252555
:104CD0002525253F200000FC048404041526C40477
:104CE00004E40400201F0020212620203028262153
:104CF00020001010FF101021B1692525E321E000EC
:104D000008080F0404221108040320201F0020209B
:104D1000E03E22A2262A2222FE20200000000704D4
:104D20000404050424241F040400109C53300C00C8
:104D30009090FF88494A4000111111090900101094
:104D40000B040A113C004042CC000828C80808089F
:104D5000FF08080020100F102020202028282F20D6
:104D600020004020F807809E9292F292929E80004E
:104D700000003F00100806013F0106081000080867
:104D8000FF884800FC4445464444FC0021213F0084
:104D9000201807000000000000004020180F08083D
:104DA000E808084828180000202010080403000321
:104DB000040810202000002424FF140024C4BF0491
:104DC000FC00C000201A020308320108310000096B
:104DD00033000808FF88004C2415060414244C00F6
:104DE00021213F00002021213F21212120002826D0
:104DF0002424FF24242400FC00FF0000001F0101E4
:104E00003F01111F0023203F0000404F4949C94F77
:104E1000604FC959694F4000023E2525243C003CA3
:104E20002425253E0200404848FF4848229E82A291
:104E3000A29E0000300F101F2222202F2828282F8A
:104E400020000808FF884800FE42C25252DE0000DF
:104E500021213F0000003F100B040A112000908A1E
:104E6000BFAABACFFA84AA9392AEA20000003A2A4F
:104E70002A2A2A2A2A2A3A00000000FF01091121C1
:104E8000C1310D01FF000000201F000804030003D2
:104E90000C000F103C000000FC14545455D6145460
:104EA0005454DC00201807000825221F0008252282
:104EB0001F005054F45F54545010FF1012D41000CF
:104EC000080B0A3F0A0A28100B040B103C00204272
:104ED000048800FC44C4447F44C41C00001806211C
:104EE00018272011160814232000203C20BF24245A
:104EF00002F21AD612F202002221100B040320172C
:104F000008070837000000F8080888483F48880864
:104F10000808F800003F0201000000000001222004
:104F20003F0040304F8888780000FF10204080000C
:104F300020100806010000003F000000010040545E
:104F400065464464544000FE02629E00003E121218
:104F500012123E00003F08080700404141FF414156
:104F6000414141FF4141400020100C03000000007E
:104F7000003F00000000808888898E88F8888C8B2C
:104F800088888000202010080403000304081020F3
:104F900020002020EFA9A9ABEDA9A9A9EF202000AE
:104FA00020282B2A2A2A3F2A2A2A2B28200000F8E8
:104FB0000106F092929292F20202FE00003F00007F
:104FC00007040404040720203F0008C8FF48A0107D
:104FD00028A423242890200001003F0020222C2018
:104FE00023302C23200010228400FE02FA02FE004F
:104FF000F800FF0018060120110C030419002320FB
:105000003F00FE92FE003216DA161A1219D5310050
:105010001F081F0022150907000D093F0900402045
:10502000F80782BAAAAAABAAAABA820000003F0077
:1050300001020222223E02020100744FE44410C821
:105040005452D1129408D00004043F02003F0525B9
:105050003F002F203F0000000000816618608000A4
:1050600000000000201008060100000001060810E2
:10507000200010228400007F494949497F00000038
:10508000180601203F213F21213F213F2000000041
:10509000FC14147C555654547C141400201807201A
:1050A000211315090915132120002020FF101010CD
:1050B0000202FE020202FE0000000F042211080696
:1050C000010020201F000808FF8810E82724E4348E
:1050D0002CE0000021213F0022130A0603060A13D8
:1050E00022002021E6000848C84808FF08090A00F5
:1050F00000001F0814101F0808010E103C000020BB
:105100003028E4232020E42830600000202010080C
:10511000070000001F20202038002021E600908C8E
:105120008784FC848484800000001F080400000041
:105130003F00000000000000000000000000000030
:10514000000000008080808080808080808080805F
:105150008080088868FF488844A4150614A4440089
:105160000201003F000020110A040A112000000281
:10517000E2020202FE8282828202000020203F20A0
:1051800020203F20202020202000000222B2AA66FA
:1051900022211149810000000011090521213F0150
:1051A00001050913000008CC4A4948CC18009F2487
:1051B0002422BA00003F0505253F00001F222221BE
:1051C00038000000FC24242526242424243C00004C
:1051D000100C03003F1111111111113F000000FECE
:1051E0002020202000FF402010080000003F100871
:1051F0000400001F20202020380000028C004030D6
:105200000F08C80808281800180601002010080612
:10521000010608102000109C53300C00FE222222B0
:1052200022FE00001111110909203F222222223FF3
:1052300020004042CC00504E48C87FC8484840003B
:1052400020100F1028242221202728282C000808AD
:10525000FF880842462A922A2642400021213F0028
:10526000080809093F09090808000622928A422213
:105270001322428A9222060001013E1212121212D9
:1052800012123E0101000889EA9848000000FF1050
:105290002040800001003F00030000003F000000AC
:1052A00001002010FC03380A4C484F484C0A3800D3
:1052B00000003F0002121A1612121A320200404079
:1052C0005F555555D55555555F40400020100F107E
:1052D00020203F2222222220200040422222120AA5
:1052E000FE0212122222400000003F111111111182
:1052F00011113F00000040C05F5555D5555555551B
:105300005F404000101F15150D3F08231509152398
:1053100020001010101010D03FD0101010101000EE
:10532000202010080601000106081020200000803F
:1053300040300000FF00001020408000010000000D
:1053400020203F0000000000010000FE02EAAAAA9F
:10535000EA02BF42A21B82002219001820242A213F
:1053600020300009330000FF21ABEDA9B9AFA9ED52
:10537000AB21FF00003F21202728282A2A2B2C219F
:105380003F00FE0232CE00FE2222222222FE000038
:105390003F040403203F22222222223F2000102229
:1053A0008400FE2AAAAAAAEAAAAAAE001806012028
:1053B0001F003F0A001F002A3F0044744CF744447A
:1053C00040300FC8082818000404043F02022010CF
:1053D0000C030C1020002010FC03100E0808FF081E
:1053E0000808000000003F00010101013F01010128
:1053F000010000FE90909F1000FC24E424E20200D3
:10540000201F00003F20100F20130C1320004040ED
:105410004F49C949494949494F40400000000203EA
:105420000202020222221E0000002021E60000F9F2
:10543000494BFD4D4BF9000020100F10202F222268
:105440002F222A2F2000FE24A8FFA82400FE2222BB
:10545000E12120003F21202F2023100F00003F00DA
:1054600000001008F4929392F29A969290F0000045
:105470002018070404041F040424243F0000985447
:105480003318201028242324281020001111090982
:10549000003F11111111113F00009854331800887A
:1054A000884F58245484E000111109092022120E5B
:1054B000021E222230002010FC0300E21E12F20223
:1054C000F800FF0000003F00211009060100232022
:1054D0003F002424FCA22200FE82828282FE000081
:1054E00004033F000120100C00000408300040209D
:1054F000504CC340404043CC1020400020100804D2
:1055000003000020201F000000004020F80700C812
:1055100008090E08E808000000003F0020202720AE
:10552000302E212020001C045555D5857F85D5556A
:1055300055041C0002020115141426340C05010246
:105540000200003E20202020FF202020203E0000DE
:105550001F10101010101F10101010103F0010D44A
:105560005F545FD42010EF0808F80800003F0505DD
:10557000253F20100B040B10200004040404FC45FC
:1055800046444444C40404002010080601000000FE
:1055900020201F0000000000FE12729212121191D2
:1055A00071010000100C232010110A040A111020B0
:1055B000200000FC0404E625242424E40404FC0068
:1055C000003F000003020202020320203F0010906F
:1055D000888894921192948888901000001F08087F
:1055E000081F003F0010101F0000202090888492A8
:1055F000E18284889020200000000008080810182C
:10560000242201000000000464544C47F444444444
:10561000440400000202020202023F0202020202ED
:1056200002004020F80700080809FA0808080000EE
:1056300000003F00202121213F21212120001022B4
:105640008410FE1010FF1010FF101000180601004B
:105650003F2020272424272020000808F94A48C892
:105660002010EF0808F8080020180720201F20103D
:105670000B040B10200000F902D052D212FE12D2FD
:105680001602FE00003F0013120B28130C133820E3
:105690003F0000BE22E23E0890FF00FF9008040099
:1056A000101F100F29110C03001F20213A0000BE0B
:1056B00022E23E00404444FC42424000101F100FD2
:1056C000092910080601061820000484142F040478
:1056D000E424242F24E404000020110804001F20E7
:1056E00020222221380000FF0189A9A9FFA9A9A928
:1056F0008901FF00003F101010101F101414131028
:105700003F0020203EA02020BF2424242424200069
:105710002022211010100F08040201000000404058
:1057200040FF4040D0484442414040000000003F1C
:10573000100800010204081010001011F60000FE0D
:1057400042527E525242FE0000000F04221F000F00
:1057500009092F203F000444445F44C44444445F8B
:1057600044C4040000000000003F000000080807D7
:1057700000008090884C5724A4D4AC848080000022
:10578000202424221215080804020100000000FE53
:1057900092929201A09E82829EA02000083F08045F
:1057A00004042023140814232000F2927E127E9217
:1057B000F200C242427E00003F12121212123F005B
:1057C0001F20202038002424FCA222009E929292C6
:1057D000929E000004033F00012024243F2424243F
:1057E0002000001F95D5B5959F955515151F0000F4
:1057F00020120A0222233E02020A13260000202160
:10580000E60020202020FF202020200000001F088C
:10581000040000003F000000000000BE22E23E0045
:1058200090885724548C8000101F100F0909003EE7
:105830001212123E000000FE2222FE0048C808F9A3
:10584000C2201000201F01213F080621203F000731
:10585000080000028C00F8080808FF080808F80093
:1058600018060100030101013F01010103000000CE
:10587000FE02222222FE22222222E20020180720FB
:1058800010080601002020100F0000FC848484848E
:10589000FF84848484FC000020201214080C131060
:1058A000102020202000088888FF88882010EF081A
:1058B00008F80800001F0808080F20100B040B1040
:1058C0002000FE0232CE00EAAEAAABAAAEEA080081
:1058D0003F040403080B0A0A3E0A0A0B08002021B1
:1058E000E60000C242424242427E000000001F0821
:1058F000041F20202020202038002022AA2A2A2A23
:10590000EA2A2A2ABE2020001010080522203F0182
:10591000020508101000000006186081068060185B
:1059200007000000202010080402010204081020D3
:105930002000040A04F008080808083000000000ED
:10594000000000070808080808060000000000F032
:10595000080402020202020408F00000000C090A16
:105960000C0000000C0A090C00000C12120C0000C4
:105970000000000000000000000000000000000027
:105980000000000000000000C0800000000080C097
:10599000603018000000000103060603010000004B
:1059A0000000109692B2B25E5352B292921610005C
:1059B00012120A0A06023F02060A0A12120088841C
:1059C000A3A6AAA2F8A4A3A2A68A82000002020AA1
:1059D000120222223F02020200008844E21920241F
:1059E00024243F24E424200000003F000105090195
:1059F00021213F0101000004F45454545F545454D5
:105A0000F404000020203F252525252525253F20BD
:105A1000200000028C2010FC4B4848F94A4808003E
:105A200018060100003F1212121F12121000109CE3
:105A300053300C00FE0024A8FFA824001111110906
:105A400009003F2221202F2023007000FF0810882A
:105A500068980FE80808C80000003F0001201209FC
:105A6000060106192000100804FBAAAAAAAAAAAADD
:105A7000FA02020020242412170A0A0A161622200B
:105A800020004020F807001010FF10F01214100042
:105A900000003F0020100C03001F20203800402091
:105AA000F807000080FF20100804000000003F00FD
:105AB0000201001F20202020380080828A928286E6
:105AC000EA8281918D8180001010080402013F015B
:105AD000020408101000222212F25A5653565A524B
