:020000040800F2
:10000000A82B0020812500083D0300083F030008BD
:1000100043030008470300084B03000800000000EA
:100020000000000000000000000000004F03000876
:1000300051030008000000005303000855030008A6
:100040009B2500089B2500089B2500089B25000890
:100050009B2500089B2500089B2500089B25000880
:100060009B2500089B2500089B2500089B25000870
:100070009B2500089B2500089B2500089B25000860
:100080009B2500089B2500089B2500089B25000850
:100090009B2500089B2500089B2500089B25000840
:1000A0009B2500089B2500089B2500089B25000830
:1000B0009B2500089B250008572500089B25000864
:1000C0009B2500089B2500089B2500089B25000810
:1000D0009B250008712400089B2500089B2500082B
:1000E0009B2500089B2500089B2500089B250008F0
:1000F0009B2500089B2500089B2500089B250008E0
:100100009B2500089B2500089B2500089B250008CF
:100110009B2500089B2500089B2500089B250008BF
:100120009B2500089B2500089B2500089B250008AF
:10013000DFF80CD003F040FF004800475D010008E5
:10014000A82B002010B5044604E021785D4802F099
:10015000F2FE641C20780028F7D110BD00244FF473
:10016000A06002F0ADFF02F0BFF84FF4165002F0AD
:1001700033F900F0E1F900F02FFA00F0FFFC00F095
:1001800094FB41F61F41642002F0B8F94EA0FFF73E
:10019000D9FF06205249C87793E0524800780128D9
:1001A00006D0022808D003280AD004287AD13EE0DD
:1001B0004DA0FFF7C7FF75E050A0FFF7C3FF71E048
:1001C0004748017F1430405C401CC1B24448027F64
:1001D000143081541438017F1430415C1438C07FCE
:1001E000401E814204DD00213D48027F14308154CD
:1001F0003B48017F0C30405C02280ADA3848017F16
:100200000C30405C401CC1B23548027F0C30815438
:1002100009E03348017F1430405C20B900213048A8
:10022000027F0C3081543AA0FFF78CFF3AE02C4853
:10023000017F1430405C40B92948C07F401EC1B2E4
:100240002748027F1430815409E02548017F14308B
:10025000405C401EC1B22248027F143081542048C5
:10026000017F0C30405C00280ADD1D48017F0C3006
:10027000405C401EC1B21A48027F0C3081540DE030
:100280001748017F1430415C1438C07F401E814202
:1002900004D102211248027F0C30815421A0FFF7C3
:1002A00051FF00BF00BF601C84B204F00F01224A5E
:1002B00052F8210000F066F9642002F052F801F0D3
:1002C000CCFF6AE70038014053746172742D5265A7
:1002D00061642D32344330322E2E2E2E0D0A000052
:1002E000C0260020AA2600204B45593020505245F8
:1002F00053532E2E2E2E0D0A000000004B4559316F
:100300002050524553532E2E2E2E0D0A0000000071
:100310004B4559322050524553532E2E2E2E0D0A46
:10032000000000004B4559332050524553532E2EA8
:100330002E2E0D0A0000000064400008704700BF28
:10034000FEE700BFFEE700BFFEE700BFFEE7704725
:1003500070477047704700000CB500200190009076
:100360006C48006840F480306A49086000BF694802
:10037000006800F4003000900198401C0190009843
:1003800018B90198B0F5A06FF1D16248006800F487
:10039000003010B10120009001E000200090009892
:1003A000012843D15C48006840F010005A490860B9
:1003B0000846006820F0030008600846006840F026
:1003C0000200086053484068524948600846406847
:1003D00048600846406840F48060486008464068CD
:1003E00020F47C1048600846406840F4E8104860FB
:1003F0000846006840F08070086000BF454800680B
:1004000000F000700028F9D04248406820F0030056
:10041000404948600846406840F00200486000BF1C
:100420003C48406800F00C000828F9D10CBD10B51C
:10043000FFF792FF10BD10B53648006840F001008C
:1004400034490860084640683449084031494860EA
:1004500008460068324908402E490860084600688E
:1004600020F4802008600846406820F4FE004860C0
:100470004FF41F008860FFF7DAFF4FF00060294952
:10048000086010BD10B5002100200022214B5B68E0
:1004900003F00C0121B1042906D0082928D107E076
:1004A000214B224C236027E01F4B204C236023E08C
:1004B000184B5B6803F47010164B5B6803F48032D2
:1004C000022303EB904022B9194B4343174C23609E
:1004D0000DE0104B5B6803F4003323B1144B43432E
:1004E000124C236003E0104B4343104C236003E0A5
:1004F0000D4B0E4C236000BF00BF064B5B68C3F37F
:1005000003130C4CE15C094B1B68CB40074C236088
:1005100010BD000000100240002002400000FFF863
:10052000FFFFF6FE08ED00E000127A000800002050
:1005300000093D000C00002008B50121102002F048
:100540004DFB0121042002F049FB4FF40050ADF8AF
:10055000000003208DF8020010208DF8030069468A
:10056000194802F07FF841F60F10ADF800000320A3
:100570008DF8020010208DF803006946134802F040
:1005800071F808BD00F00101114A1160C0F340018B
:10059000104AC2F88411C0F380010D4A083211607C
:1005A000C0F3C001121D1160C0F30011084A2032CF
:1005B0001160C0F34011064A2C321160C0F3801163
:1005C000121D11607047000000100140000801403A
:1005D000800121420000214208B50121082002F0DB
:1005E000FDFA01212D4802F00EF94FF47070ADF8BC
:1005F000000048208DF803006946294802F032F8CF
:1006000008BD10B5044614B10120264908702548DC
:10061000007858B32448006858B12348001D00688A
:1006200038B121480830006818B11F480C30006804
:10063000E0B9012001F095FE00201A4908701A481F
:10064000006808B9012010BD1748001D006808B9EE
:100650000220F8E714480830006808B90320F2E7E0
:1006600011480C300068B0B90420ECE70E4800686F
:10067000012810D10C48001D006801280BD10A4840
:1006800008300068012806D107480C3000680128AE
:1006900001D1044908700020D5E7000000023000B5
:1006A000000C01401C0000201881214210B54FF4BD
:1006B0008051F94802F083F84FF40041F64802F007
:1006C0007EF84FF40041F44802F07BF84FF480517B
:1006D000F14802F076F810BD10B54FF48051EE48A5
:1006E00002F06DF84FF40041EB4802F06AF84FF465
:1006F0000041E94802F063F810BD10B54FF4805195
:10070000E54802F05CF84FF48051E34802F059F8F4
:1007100010BD2DE9F04105462C464FF48051DE48CE
:1007200002F04FF800261CE0274607F08007802FD4
:1007300004D13902D84802F042F804E04FF40041F5
:10074000D54802F03EF86006040E4FF48051D248BE
:1007500002F035F84FF48051CF4802F032F8701CA7
:10076000C6B2082EE0DBBDE8F08110B50446FFF705
:100770009DFF7820FFF7CDFFFFF7BFFF0020FFF7B9
:10078000C8FFFFF7BAFF2046FFF7C3FFFFF7B5FF2B
:10079000FFF7A2FF10BD10B50446FFF787FF7820D2
:1007A000FFF7B7FFFFF7A9FF4020FFF7B2FFFFF702
:1007B000A4FF2046FFF7ADFFFFF79FFFFFF78CFF79
:1007C00010BD70B504460D461DB1E0B2FFF7E3FF62
:1007D00002E0E0B2FFF7C9FF70BD70B50646002425
:1007E00018E004F1B0000021FFF7EBFF00210846FC
:1007F000FFF7E7FF00211020FFF7E3FF002505E0EA
:1008000001213046FFF7DDFF681CC5B2802DF7DB04
:10081000601CC4B2082CE4DB70BD06E041F6650143
:1008200000E0491E0029FCD1401E0028F6D1704787
:10083000014605E0002001E0421CD0B27B28FBDB32
:100840000A1EA1F10101F5D1704770B504460D46AD
:1008500005F1B0000021FFF7B4FF102141EA1410A8
:100860000021FFF7AEFF04F00F000021FFF7A9FF02
:1008700070BD10B500218D20FFF7A3FF00211420CB
:10088000FFF79FFF0021AF20FFF79BFF10BD10B5C2
:1008900000218D20FFF795FF00211020FFF791FF29
:1008A0000021AE20FFF78DFF10BD70B5002418E0C9
:1008B00004F1B0000021FFF784FF00210846FFF794
:1008C00080FF00211020FFF77CFF002505E00121BB
:1008D0000020FFF776FF681CC5B2802DF7DB601C97
:1008E000C4B2082CE4DB70BD70B5002418E004F13C
:1008F000B0000021FFF765FF00210846FFF761FF08
:1009000000211020FFF75DFF002505E001210846CA
:10091000FFF757FF681CC5B2802DF7DB601CC4B21F
:10092000082CE4DB70BD2DE9F04707460E469046E3
:10093000994600250024A8F12000C5B27F2F02DDD2
:100940000027B01CC6B2B9F1100F24D13146384689
:10095000FFF77BFF002408E004EB05114F4A505CD1
:100960000121FFF72EFF601CC4B2082CF4DB701CC1
:10097000C1B23846FFF769FF002409E004EB051116
:100980000831464A505C0121FFF71BFF601CC4B2CE
:10099000082CF3DB12E031463846FFF756FF0024FF
:1009A0000AE005EB45013E4A02EB4101085D0121E9
:1009B000FFF707FF601CC4B2062CF2DBBDE8F0872E
:1009C00010B50246012000E050430B1EA1F10104C6
:1009D000E1B2F9D110BD2DE9FF5F074691461E46F1
:1009E0000E9D4FF0000A002435E0301B401EC1B2BE
:1009F0000A20FFF7E5FFB9FBF0F00A21B0FBF1F2A6
:100A000001FB1208BAF1000F14D1701EA04211DDD3
:100A1000B8F1000F0CD1AB4605EBDB71491001FBBF
:100A20000471C8B22B4620220199FFF77CFF10E029
:100A30004FF0010AAB4605EBDB71491001FB047175
:100A4000C8B208F13001CAB22B460199FFF76BFF1B
:100A500000BF601CC4B2B442C7DBBDE8FF9F2DE9F4
:100A6000F04104460F461546984600260FE0AA5D61
:100A7000434639462046FFF756FF04F10800C4B24A
:100A8000782C02DD0024B81CC7B2701CC6B2A85D69
:100A90000028ECD1BDE8F081000C0140B442000810
:100AA0008C4000082DE9F04180460E46154600278F
:100AB00031464046FFF7C9FE00240AE0744A02EBC3
:100AC0008511085D0121FFF77CFE781CC7B2601C10
:100AD000C4B2102CF2DB701CC1B24046FFF7B5FE69
:100AE00000240CE06900491C694A02EB4111085DD1
:100AF0000121FFF766FE781CC7B2601CC4B2102C3F
:100B0000F0DBBDE8F0812DE9F05F06460F46904628
:100B10001C46DDF828A04FF0000BE11704EB5171E3
:100B2000C910A4EBC10131B92046E11704EB5171A2
:100B3000C1F3C70506E02046E11704EB5171C91067
:100B4000491CCDB23D4615E029463046FFF77DFEF3
:100B5000B1460BE059460BF1010B1AF801000121D7
:100B6000FFF72FFE09F1010000F0FF09C145F1DB9D
:100B7000681CC5B2A542E7DBBDE8F09F08B50121BE
:100B8000082002F02BF84FF41040ADF800001020C0
:100B90008DF8030003208DF8020069463D4801F0FE
:100BA00061FD4FF410413B4801F009FE4FF44870DD
:100BB00001F0D7FB0021AE20FFF703FE002108461D
:100BC000FFF7FFFD00211020FFF7FBFD0021402073
:100BD000FFF7F7FD0021B020FFF7F3FD0021812092
:100BE000FFF7EFFD0021FF20FFF7EBFD0021A12023
:100BF000FFF7E7FD0021A620FFF7E3FD0021A82075
:100C0000FFF7DFFD00213F20FFF7DBFD0021C820BB
:100C1000FFF7D7FD0021D320FFF7D3FD00210846C1
:100C2000FFF7CFFD0021D520FFF7CBFD002180206D
:100C3000FFF7C7FD0021D820FFF7C3FD00210520E5
:100C4000FFF7BFFD0021D920FFF7BBFD0021F120F8
:100C5000FFF7B7FD0021DA20FFF7B3FD00211220D6
:100C6000FFF7AFFD0021DB20FFF7ABFD00213020B7
:100C7000FFF7A7FD00218D20FFF7A3FD0021142021
:100C8000FFF79FFD0021AF20FFF79BFD08BD00008F
:100C90001D000020000C01402DE9F04106460F46E2
:100CA000144631463846FFF7D0FD0E2505E0207882
:100CB000FFF771FD641C681EC5B2002DF7D1701CD2
:100CC000C6B231463846FFF7C0FD0E2507E0217851
:100CD00041F04000FFF75FFD641C681EC5B2002DA7
:100CE000F5D1BDE8F0812DE9F04106460F461446E6
:100CF00031463846FFF7A9FD0E2507E02178C943A4
:100D0000C8B2FFF748FD641C681EC5B2002DF5D1BE
:100D1000701CC6B231463846FFF797FD0E2508E035
:100D2000207880F07F084046FFF735FD641C681E80
:100D3000C5B2002DF4D1BDE8F0812DE9F0410646A1
:100D40000F46144631463846FFF77FFD0E2505E075
:100D50002078FFF720FD641C681EC5B2002DF7D176
:100D6000701CC6B231463846FFF76FFD0E2505E010
:100D70002078FFF710FD641C681EC5B2002DF7D166
:100D8000BDE8F0810246A2F1A10043286FD2DFE85E
:100D900010F043006E006E006E006E0072006E0078
:100DA00077006E006E006E006E006E006E006E00CA
:100DB00081009300BB00EF002B0159018101B501B7
:100DC000D901010221022F0241038103A903B703C4
:100DD000C903E90309042D043B045304600484049B
:100DE000A804D604F60413062F06410661067D0604
:100DF000A506DD06FD06150731075F077707AB0778
:100E00006E006E006E006E006E006E006E006E0072
:100E10006E006E006E00DF07F12920D00CDCE629A1
:100E200017D004DCE12910D0E32923D10FE0EE290B
:100E300011D0F0291ED110E0F32912D0F42912D0DC
:100E4000F82912D0F92915D112E0F9487047F9486C
:100E5000FCE7F948FAE7F948F8E7F948F6E7F9480E
:100E6000F4E7F948F2E7F948F0E7F948EEE7D0E2AD
:100E7000F848EBE7CDE2B82901D1F748E6E7F9E712
:100E8000782902D08B2904D101E0F448DEE7F44848
:100E9000DCE7EFE7B42906D0B82906D0E52906D06B
:100EA000E62908D105E0EF48D0E7EF48CEE7EF4864
:100EB000CCE7EF48CAE7DDE7C82918D008DCA3294A
:100EC0000FD0A7290FD0A8290FD0BE291BD110E021
:100ED000D52910D0DF2910D0E02910D0EA2912D16D
:100EE0000FE0E448B2E7E448B0E7E448AEE7E4489E
:100EF000ACE7E448AAE7E448A8E7E448A6E7E44802
:100F0000A4E7E448A2E7B5E7C92922D00CDCBB2955
:100F10001BD004DCA82914D0B92928D113E0BD299D
:100F20001DD0BF2923D112E0E2291AD004DCCB293D
:100F300011D0CE291BD110E0E92914D0FA2916D1FD
:100F400013E0D54882E7D54880E7D5487EE7D54805
:100F50007CE7D5487AE7D54878E7D54876E7D5489D
:100F600074E7D54872E7D54870E7D5486EE781E762
:100F7000B5292AD00EDCA52921D006DCA12918D05C
:100F8000A32918D0A4292ED117E0A72919D0AC295C
:100F900029D118E0E52920D006DCC92917D0CC29B1
:100FA00017D0D9291FD116E0F5291AD0F6291AD160
:100FB00015E0C4484AE7C44848E7C44846E7C4487F
:100FC00044E7C44842E7C44840E7C4483EE7C44851
:100FD0003CE7C4483AE7C44838E7C44836E7C44861
:100FE00034E7C44832E745E7ED2920D00CDCAE29D0
:100FF00017D004DCA52910D0AB2922D10FE0CE29CF
:1010000011D0D3291DD110E0EF2912D0F22912D02E
:10101000F32912D0FD2914D111E0B74816E7B748DB
:1010200014E7B74812E7B74810E7B7480EE7B748E4
:101030000CE7B7480AE7B74808E7B74806E7B748F4
:1010400004E717E7D8291AD008DCA5290FD0B12961
:101050000FD0BD290FD0C8291BD10EE0E32910D035
:10106000E72910D0F52910D0F72912D10FE0AC48AC
:10107000ECE6AC48EAE6AC48E8E6AC48E6E6AC4864
:10108000E4E6AC48E2E6AC48E0E6AC48DEE6AC4874
:10109000DCE6EFE6CD2922D00CDCC1291BD004DC34
:1010A000A82914D0AF2928D113E0C82915D0CB29FD
:1010B00023D116E0E0291AD004DCCE2913D0CF29A1
:1010C0001BD112E0EE2914D0FE2916D113E09D4861
:1010D000BCE69D48BAE69D48B8E69D48B6E69D4800
:1010E000B4E69D48B2E69D48B0E69D48AEE69D4810
:1010F000ACE69D48AAE69D48A8E68AE1C52918D035
:1011000008DCB4290DD0B5290DD0B6290DD0BD29E4
:1011100017D10CE0D6290ED0E7290ED0F12910D135
:101120000DE0934892E6934890E693488EE6934804
:101130008CE693488AE6934888E6934886E6934887
:1011400084E666E1D0291AD008DCA8290FD0B4299A
:101150000FD0BA290FD0C4291BD10EE0DF2910D03F
:10116000F12910D0F82910D0FA2912D10FE08848BF
:101170006CE688486AE6884868E6884866E68848F3
:1011800064E6884862E6884860E688485EE6884803
:101190005CE63EE1D82914D006DCA6290BD0CA298A
:1011A0000BD0D52915D10AE0DC290CD0DF290CD0D1
:1011B000FD290ED10BE07F4848E67F4846E67F4890
:1011C00044E67F4842E67F4840E67F483EE67F4867
:1011D0003CE61EE1C52904D0CF2904D0F32906D16D
:1011E00003E07B4832E67B4830E67B482EE610E1A0
:1011F000D62915D00CDCAF2913D004DCA42911D0DA
:10120000A72910D1F1E0BA290ED0BB290BD1F2E009
:10121000F9290AD00ADCD82909D0F72903D1F0E04E
:10122000EBE0E4E0DFE0F4E0E3E0ECE0D6E0E6E091
:101230004A76000812680008DA6700084E6E000857
:10124000DA6E0008BE6E00088A7400082E68000876
:10125000527400086E740008F6670008326E0008C9
:10126000367400088E5700084A680008B6690008FE
:101270009A6200080A5C000896710008EA5C00089F
:1012800086600008B25500084670000856730008D2
:10129000125A000866770008765D00082E61000883
:1012A0005E6A0008E65D0008626900086254000892
:1012B000D2540008AA6500088E5E00083E56000859
:1012C000765600089A5B0008426A0008C665000866
:1012D0004A610008FE570008CE5C0008AE640008B2
:1012E000AE7200086E660008566C0008FA660008C8
:1012F000EA6300080E780008167500083E720008C0
:10130000D2690008A2600008BC760008A674000834
:101310009A700008F6760008BA6100088268000832
:101320007E540008FA6D00087E70000866680008A8
:101330006E6D00086E580008A2590008A0760008DB
:10134000E2650008E25700084E590008B271000833
:10135000365F0008DA760008DA59000836660008B9
:10136000EE6200081A6600082E5A00086A6E00082D
:101370003E6400082E7700087265000822640008A9
:101380000265000896630008225D0008826100087B
:10139000766B00080E690008CA7200083A57000808
:1013A000F2610008E6560008DE6D000826630008BA
:1013B0007A6A00084A5A00084E670008E27300087B
:1013C0001E5E00080A55000882760008EE5B0008E1
:1013D000B662000852580008D2700008FA2914D0EA
:1013E000FD2916D113E0F94830E5F9482EE5F94812
:1013F0002CE5F9482AE5F94828E5F94826E5F948B1
:1014000024E5F94822E5F94820E5F9481EE5F948C0
:101410001CE5D0E2D3292ED010DCC72923D006DC6E
:10142000B6291CD0BC2918D0C62932D119E0CA2946
:101430001BD0CC291BD0D2292BD11AE0F52922D0E0
:1014400006DCE02919D0E42919D0EC2921D118E0D3
:10145000FC291AD0FE291CD119E0E748F6E4E74838
:10146000F4E4E748F2E4E748F0E4E748EEE4E7486C
:10147000ECE4E748EAE4E748E8E4E748E6E4E7487C
:10148000E4E4E748E2E4E748E0E4E748DEE4E7488C
:10149000DCE490E2D32918D008DCB5291FD0BB29A1
:1014A0000DD0C7290DD0CF291BD10CE0DA290ED0E1
:1014B000E1290ED0E7290ED0F82912D10DE0DC4841
:1014C000C4E4DC48C2E4DC48C0E4DC48BEE4DC48F8
:1014D000BCE4DC48BAE4DC48B8E4DC48B6E4DC4808
:1014E000B4E468E2AF2904D0D82904D0DD2906D1BC
:1014F00003E0D848AAE4D848A8E4D848A6E45AE2C9
:10150000AA2906D0D82908D0DA2904D0EC2908D194
:1015100005E0D3489AE4D34898E4D34896E4D34806
:1015200094E448E2E02912D006DCA1290BD0A929D5
:101530000BD0DB2915D10CE0ED290CD0FA290CD009
:10154000FD290ED10BE0CA4880E4CA487EE4CA48AF
:101550007CE4CA487AE4CA4878E4CA4876E4CA48CF
:1015600074E4FAE3E32914D006DCAC290BD0BD29DE
:101570000BD0BF2915D10AE0EE290CD0F4290ED0EA
:10158000F7290ED109E0C14860E4C1485EE4C148D2
:101590005CE4C1485AE4C14858E4C14856E4C14833
:1015A00054E4DAE3CB2916D008DCA9290DD0B729F9
:1015B0000DD0BC290DD0CA2917D10EE0EB290ED0D1
:1015C000F6290ED0FD2910D10DE0B7483EE4B7480A
:1015D0003CE4B7483AE4B74838E4B74836E4B7489B
:1015E00034E4B74832E4B74830E4B6E3DC2904D049
:1015F000E62904D0FC2906D103E0B34826E4B34829
:1016000024E4B34822E4A8E3DA290ED004DCA329B9
:1016100007D0B8290FD106E0DC2908D0E2290AD189
:1016200007E0AC4812E4AC4810E4AC480EE4AC4827
:101630000CE4AC480AE490E3A42907D0BC2903D009
:10164000E42905D1A84801E4A84805E4A84805E430
:1016500083E3E62918D008DCAB290DD0B5290DD0DD
:10166000B7290DD0BD2917D10CE0F0290ED0F429EF
:101670000ED0F72910D10DE09E4807E49E4805E4FE
:101680009E4805E49E480FE49E480DE49E480BE406
:101690009E4809E49E4807E45FE3EB2918D008DC84
:1016A000B0290DD0B7290DD0D0290DD0E52917D1FB
:1016B0000CE0F8290ED0FA290ED0FD2910D10DE04A
:1016C00094480FE494480DE494480BE4944809E4EA
:1016D000944807E4944805E4944805E4944805E4F4
:1016E0003BE3DD2920D00CDCB72917D004DCA1298D
:1016F00010D0A62922D10FE0C62911D0C8291DD1AA
:1017000010E0EB2912D0ED2912D0F52912D0FD29D5
:1017100014D111E0874815E4874813E4874811E4A1
:1017200087480FE487480DE487480BE4874809E4BD
:10173000874807E4874805E4874805E40DE3CF2997
:1017400014D006DCA2290BD0C8290BD0CC2915D186
:101750000AE0D4290CD0E4290CD0E8290ED10BE002
:101760007E4827E47E4825E47E4823E47E4821E441
:101770007E481FE47E481DE47E481BE4EDE2C72955
:1017800019D00EDCB92917D006DCB12915D0B5293E
:1017900014D0B72913D1F8E0BC2911D0BD290ED13E
:1017A000F9E0F5290DD00DDCD4290CD0D6290BD0C9
:1017B000E42904D1F7E0F0E0E9E0E2E0E3E0FAE078
:1017C000E7E0F4E0D8E0EAE0EBE00000265C0008A7
:1017D000B654000846690008CE6A00086E5F00082B
:1017E000F26800084A77000812770008965500084A
:1017F000BE5900087A6300085E55000802570008C9
:10180000A6660008866700082E760008D6680008DD
:101810001E7300089E6F000812760008565E0008CE
:10182000725E0008BA6F0008AA5700087E620008BE
:10183000FA7400080A630008D66F00083A730008BB
:10184000FE650008A2750008F675000842710008E0
:10185000F2770008065D0008D65A0008C26D00083D
:10186000025E0008EE6900087A5C00083275000824
:10187000366D00086A590008866E00088A660008FE
:1018800026550008166700085E6300087A71000894
:10189000666F00083A5E0008CE6300089264000894
:1018A0000E5B00082A70000846620008C266000845
:1018B000A2670008026C0008665A00087257000808
:1018C000DE660008EA6A0008565700089A690008B0
:1018D00076640008FA580008B65B0008AE5D0008A0
:1018E0004E60000836580008526600084A6F00082B
:1018F0002A780008726C0008925D00089256000871
:101900008E7300082E6F00086A7500086A60000870
:10191000B25C0008166E0008425C0008525F0008C6
:101920000E700008EA710008FE6C0008DA75000805
:101930001A740008CE7100080E6200085A7200087E
:10194000426300085E5C000812610008FE5E000849
:1019500062620008E6720008826F000806640008F0
:101960003E5D00081A580008AE6B000806720008B9
:10197000C6730008CE550008F8291AD0FD291AD1DF
:1019800013E0F74804E4F74816E4F74814E4F7488E
:1019900012E4F74810E4F7480EE4F7480CE4F7487F
:1019A0000AE4F74808E4F74806E4F74804E4F7488F
:1019B00004E4F74804E4D0E1D92910D006DCA229D8
:1019C00013D0B22907D0C02911D106E0E6290AD0E8
:1019D000F8290CD105E0EF4804E4EF4804E4EF48AF
:1019E00004E4EF4800E5EF48FEE4EF48FCE4B4E12E
:1019F000AC2906D0D72906D0D82906D0F82908D195
:101A000005E0EA48F0E4EA48EEE4EA48ECE4EA48B3
:101A1000EAE4A2E1B32914D006DCA3290BD0A8295B
:101A20000BD0AC2915D10AE0CB290CD0E2290CD07F
:101A3000EA290ED10BE0E148D6E4E148D4E4E148DC
:101A4000D2E4E148D0E4E148CEE4E148CCE4E14826
:101A5000CAE482E1C2290ED006DCA22911D0A7294E
:101A60000DD0BB2911D108E0DE2902D0F3290CD119
:101A700009E0D948B8E4D948B6E4D948B4E4D9482B
:101A8000B2E4D948B0E4D948AEE466E1DE291AD020
:101A900008DCA2290FD0B5290FD0C2290FD0C82940
:101AA0001BD10EE0DF2910D0E02910D0F22910D090
:101AB000FB2912D10FE0CE4896E4CE4894E4CE48FC
:101AC00092E4CE4890E4CE488EE4CE488CE4CE48F2
:101AD0008AE4CE4888E4CE4886E43EE1C52928D091
:101AE0000EDCB9291FD006DCA12916D0A32916D0F7
:101AF000A7292AD115E0C22917D0C42925D116E07B
:101B0000D4291CD004DCCD2915D0D0291DD114E056
:101B1000DE2916D0ED2918D115E0BE4864E4BE4890
:101B200062E4BE4860E4BE485EE4BE485CE4BE4891
:101B30005AE4BE4858E4BE4856E4BE4854E4BE48A1
:101B400052E4BE4850E4BE484EE406E1B92912D042
:101B500006DCA1290BD0AF290BD0B62915D112E094
:101B6000D3290AD0D8290AD0E9290ED109E0B548ED
:101B70003AE4B54838E4B54836E4B54834E4B54805
:101B800032E4B54830E4B5482EE4E6E0E5290ED06D
:101B900004DCBB2907D0E4290FD106E0E62908D0F0
:101BA000EC290AD107E0AE481EE4AE481CE4AE487A
:101BB0001AE4AE4818E4AE4816E4CEE0C52910D0C9
:101BC00006DCA62913D0B32907D0C32911D106E01A
:101BD000C92908D0D0290CD107E0A64804E4A648BA
:101BE00004E4A64804E4A64804E4A64804E4A6489D
:101BF00004E4B2E0D82920D00CDCBE2917D004DCE4
:101C0000B12910D0B42922D10FE0CA2911D0CB2993
:101C10001DD110E0D92912D0DA2912D0F12912D021
:101C2000F62914D111E0994818E4994816E4994826
:101C300014E4994812E4994810E499480EE499484C
:101C40000CE499480AE4994808E4994806E484E0D9
:101C5000CF290ED004DCB62907D0B9290FD106E070
:101C6000DF2908D0FD290AD107E0924804E4924810
:101C700004E4924804E4924804E4924804E46CE0EA
:101C8000C32924D00CDCB7291BD004DCB12914D023
:101C9000B52928D113E0BB2915D0BE2923D114E0E2
:101CA000D8291AD004DCC62913D0D0291BD112E0C0
:101CB000F72914D0FA2916D113E0834804E48348A5
:101CC00004E4834804E4834804E4824804E482484A
:101CD00004E4824804E482480CE482480AE482482E
:101CE00008E4824806E438E0D42924D00CDCB42986
:101CF0001BD004DCA12914D0AA2928D113E0BC29C7
:101D000015D0D32923D114E0E9291AD004DCD6292F
:101D100013D0E8291BD112E0EE2914D0F72916D1EF
:101D200013E0734810E473480EE473480CE47348FE
:101D30000AE4734808E4734806E4734804E473480B
:101D400004E4734804E4734804E4734804E404E0DE
:101D5000D02901D1714817E400BF00BF704813E4D7
:101D6000A65800088A580008326700083E6B000831
:101D70008675000816590008666100088A5F000829
:101D8000266A0008E25E0008EE5400087A55000852
:101D9000BE750008AA5E0008E26C0008BA5A000886
:101DA000C6570008966A0008BA770008225600084D
:101DB0007E690008A66D00083A650008C65E000846
:101DC000D26200089E77000862700008DE74000886
:101DD000CA5D000892720008F66E00081A5F0008DB
:101DE000B26300088E650008526D0008C2740008D6
:101DF000CA56000832600008CA6B0008B6700008B6
:101E0000E66B0008D25B0008F25A00085A6400082A
:101E100076720008D6610008FA5F0008465B000889
:101E2000E664000822720008C66C0008AE5600087E
:101E3000A26E0008DE580008027300081E57000852
:101E4000C25F0008DA6000085A560008825A00088B
:101E50003A6C000872730008126F0008D677000809
:101E6000226B0008066B0008BE670008AA6C000819
:101E70000A710008AA7300089A5400082A69000829
:101E8000B26A00082A5B00087E5B00084255000821
:101E9000FE73000856650008A65F0008C2580008D7
:101EA0005A5D0008EE70000826710008F660000810
:101EB0008E6C00084E750008865900086A67000895
:101EC000F26F0008166000089E680008625B000858
:101ED0008A6D00080A6A0008EA550008965C000846
:101EE0001E6C00085E7100085A6B0008926B0008B7
:101EF000CA6400089E5A000806560008BA6800081E
:101F0000F6590008325900081A6D00082A620008C4
:101F1000BE6000089E610008667600081E65000825
:101F2000DE5F00082DE9F04782460F4690461C46CA
:101F3000002530E0605D80282BDB14F805902846F2
:101F4000691CCDB2205C08B3615D4846FEF71AFFFC
:101F50000646B8F1000F06D0B8F1010F09D0B8F16C
:101F6000020F12D10BE0324639465046FEF7E5FE2D
:101F70000BE0324639465046FEF7B5FE05E03246E4
:101F800039465046FEF788FE00BF00BF07F10E003D
:101F9000C7B2681CC5B2605D0028CBD1BDE8F08730
:101FA0002DE9F04106460F46144631463846FEF705
:101FB0004CFC072505E02078FEF7EDFB641C681E4D
:101FC000C5B2002DF7D1701CC6B231463846FEF7B7
:101FD0003CFC072507E0217841F04000FEF7DBFBE1
:101FE000641C681EC5B2002DF5D1BDE8F0812DE955
:101FF000F04106460F46144631463846FEF725FCAA
:10200000072507E02178C943C8B2FEF7C4FB641C6A
:10201000681EC5B2002DF5D1701CC6B231463846D7
:10202000FEF713FC072508E0207880F07F08404683
:10203000FEF7B1FB641C681EC5B2002DF4D1BDE8EB
:10204000F0812DE9F04106460F46144631463846E8
:10205000FEF7FBFB072505E02078FEF79CFB641CE0
:10206000681EC5B2002DF7D1701CC6B23146384685
:10207000FEF7EBFB072505E02078FEF78CFB641CE0
:10208000681EC5B2002DF7D1BDE8F0812DE9F047FB
:1020900007460C4615461E46A6F1200000F0FF0834
:1020A000C8EBC800864901EB400925B1012D08D0D5
:1020B000022D12D10BE04A4621463846FFF7C1FFF8
:1020C0000BE04A4621463846FFF791FF05E04A46B5
:1020D00021463846FFF764FF00BF00BFE01DC4B2D1
:1020E000BDE8F0872DE9F04105460F461646294622
:1020F0003846FEF7AAFB344604E00020FEF74BFB0F
:10210000601EC4B2002CF8D1681CC5B229463846FE
:10211000FEF79BFB344604E04020FEF73CFB601ECC
:10212000C4B2002CF8D1BDE8F08170B503220021C3
:102130000846FFF7D7FF6348022203210368002007
:10214000FFF7F0FE604B022257210020FFF7EAFE66
:102150005E48807F5D49497F401A44B2022563E0B2
:102160000A2094FBF0F03030C6B2334600220E2134
:102170002846FFF78BFF0A2094FBF0F100FB11408B
:102180003030C6B23346002215212846FFF77EFFC5
:10219000601C44B24D48407F022101EB4000A84240
:1021A00029D14A48807F30B9494B00221146284640
:1021B000FFF7B8FE14E04548817FC07F401E814292
:1021C00007D1434B9B1D002211462846FFF7AAFE6C
:1021D00006E03F4BDB1C002211462846FFF7A2FE1B
:1021E000384800680D2101FB040301222021284604
:1021F000FFF798FE10E0364BDB1E00221146284602
:10220000FFF790FE2F4800680D2101FB0403002218
:1022100020212846FFF786FE2E4B002274212846F7
:10222000FFF780FEA81CC5B2082D99DB70BD2748BA
:10223000017F0C30405C254948770846017F143007
:10224000405C2249887709202349087000202349EF
:10225000087023481B490860704710B5FFF7E7FF77
:102260001F4818490860FFF760FFC82000F079F8A0
:1022700010BD2DE9F04102261A4F042511E0314628
:102280000620FEF7E2FA762405E03878FEF783FAB6
:102290007F1C601EC4B2002CF7D1701CC6B2681E31
:1022A000C5B2002DEBD1BDE8F08110B50A48007829
:1022B000112802D1FFF7DDFF00BF00BF10BD0000F5
:1022C000304F0008040000205F780008C02600207E
:1022D000A1C10008547800089D26002000000020BD
:1022E000C2780008A448000810B56FF0040000F0A0
:1022F00036FF2E4800682E49B0FBF1F02D490870DA
:102300000846007800EB4001C1EBC0104FF6FF71AA
:1023100001EAC0002849088010BD0146254A12780C
:102320004A434FF0E0235A6100229A611A4612692B
:1023300042F001021A6100BF4FF0E022106900F084
:1023400001021AB100F48032002AF5D04FF0E022E9
:10235000126922F001024FF0E0231A6100229A6113
:1023600070470146144A12884A434FF0E0235A61ED
:1023700000229A611A46126942F001021A6100BFF6
:102380004FF0E022106900F001021AB100F480322F
:10239000002AF5D04FF0E022126922F001024FF03E
:1023A000E0231A6100229A617047000008000020B3
:1023B00000127A00A0260020A226002000BF70474D
:1023C00000BF4A4A128802F04002002AF9D0C2B285
:1023D000464B1B1D1A80704710B586B0044601217C
:1023E00044F2040000F0FAFB4FF40070ADF8140062
:1023F00003208DF8160018208DF8170005A93C4819
:1024000000F030F94FF48060ADF8140004208DF82E
:10241000170005A9364800F025F925208DF80000A1
:1024200003208DF801008DF8020001208DF80300D3
:10243000684600F04AFE01940020ADF80800ADF8AF
:102440000A00ADF80C00ADF810000C20ADF80E003D
:1024500001A9264800F069FC012240F225512348D9
:1024600000F0FBFC0121214800F0EBFC06B010BDA0
:1024700010B540F225511D4800F0DEFD10B31B4899
:1024800000F067FDC4B21B48008800F40040C8B9E2
:102490001848008800F4804060B10A2C03D0002066
:1024A0001449088020E01348008840F40040114996
:1024B000088019E00D2C06D10E48008840F48040B9
:1024C0000C49088010E00B480088C0F30D000A4951
:1024D0000C5408480088401C0649088008460088BB
:1024E000C72801DD0020088010BD00000038014031
:1024F00000080140A8260020E02600207FB5054600
:102500000C460121042000F076FBADF80850ADF830
:1025100004400020ADF80A00ADF8060001A91648F5
:1025200000F010FF01221146134801F082FA1E202C
:102530008DF8000000208DF8010003208DF80200C6
:1025400001208DF80300684600F0BFFD01210A4814
:1025500001F054FA7FBD10B50121074801F017FDC5
:1025600040B10121044801F023FD0020FEF749F8A5
:102570000249087010BD000000080040AA26002093
:102580000648804706480047FEE7FEE7FEE7FEE70D
:10259000FEE7FEE7FEE7FEE7FEE7FEE7370400089A
:1025A0003101000810B50446CC48844208D101210D
:1025B000042000F02DFB0021042000F029FB46E060
:1025C000C748844208D10121082000F021FB0021E6
:1025D000082000F01DFB3AE0C248844208D10121E6
:1025E000102000F015FB0021102000F011FB2EE060
:1025F000BD48844208D10121202000F009FB0021C0
:10260000202000F005FB22E0B848844208D10121D7
:10261000402000F0FDFA0021402000F0F9FA16E019
:10262000B348844208D10121802000F0F1FA002152
:10263000802000F0EDFA0AE0AE48844207D1012183
:10264000801500F0E5FA0021A01500F0E1FA10BDB8
:1026500010B50121084600F0DBFA0021012000F04E
:10266000D7FA10BD2DE9F0410246002500260020D2
:1026700000230024002791F803C00CF00F0591F807
:1026800003C00CF0100CBCF1000F03D091F802C095
:102690004CEA050591F800C0BCF1000F31D0146878
:1026A00000202BE04FF0010C0CFA00F3B1F800C051
:1026B0000CEA03069E4220D183004FF00F0C0CFA67
:1026C00003F7BC4305FA03FC4CEA040491F803C089
:1026D000BCF1280F06D14FF0010C0CFA00FCC2F837
:1026E00014C00AE091F803C0BCF1480F05D14FF0C7
:1026F000010C0CFA00FCC2F810C0401C0828D1D311
:102700001460B1F800C0BCF1FF0F34DD5468002044
:102710002EE000F1080C4FF0010808FA0CF3B1F8B4
:1027200000C00CEA03069E4221D183004FF00F0C3B
:102730000CFA03F7BC4305FA03FC4CEA040491F8D5
:1027400003C0BCF1280F05D100F1080C08FA0CF801
:10275000C2F8148091F803C0BCF1480F07D100F112
:10276000080C4FF0010808FA0CF8C2F81080401C61
:102770000828CED35460BDE8F0814FF6FF71018088
:10278000022181700421C1707047024600209368C5
:102790000B400BB1012000E0002070470146886823
:1027A00080B2704702460020D3680B400BB1012075
:1027B00000E0002070470146C86880B270470161A0
:1027C0007047416170470AB1016100E041617047A3
:1027D000C16070474FF480320A4382618161826137
:1027E00082698269704702460020434B18684FF6A1
:1027F0008073184040EA021008433F4B186070474E
:102800003E49C8617047F0B50A4600230024002104
:10281000002500F00046B6F1004F02D1364EF169B6
:1028200001E0354E7168C0F3034583B200F44016F1
:10283000B6F5401F08D121F070612F4E766826F062
:1028400070662D4F7E6012E000F48016B6F5801F92
:1028500006D1032606FA05F4A14341F0706106E0B3
:10286000460D360103FA06F6B14341F0706122B11C
:10287000460D360103FA06F6314300F00046B6F184
:10288000004F02D11C4EF16101E01B4E7160F0BDA2
:1028900030B500228B071C0F0F2303FA04F2164BEE
:1028A00008338C1053F824309343134C08348D10A4
:1028B00044F8253023468C1053F824308C07240F1D
:1028C00000FA04F423430C4C08348D1044F82530EE
:1028D00030BD0A49DC310860704700000008014043
:1028E000000C01400010014000140140001801409C
:1028F000001C014000200140000001400000204277
:10290000DF48006840F00100DD4908600846406883
:10291000DC490840DA49486008460068DA4908405E
:10292000D74908600846006820F4802008600846FF
:10293000406820F4FE0048604FF41F008860704734
:10294000CF49096821F48031CD4A116011460968E8
:1029500021F480211160B0F5803F03D0B0F5802FC5
:102960000ED106E0C649096841F48031C44A1160BD
:1029700007E0C349096841F4A021C14A116000E0A1
:1029800000BF00BF704710B50146002200230020A1
:102990004A11012A02D1BA4C236806E0022A02D168
:1029A000B74C236A01E0B64C636A01F01F020124B0
:1029B00094401C400CB1012000E0002010BD38B54F
:1029C000002000900024002500BF3120FFF7DBFF2E
:1029D00005460098401C00900098B0F5A06F01D00B
:1029E000002DF2D03120FFF7CEFF08B1012400E026
:1029F0000024204638BD01460020A14A106820F07E
:102A0000F80040EAC10010607047A04908607047B4
:102A1000024600209A4B586820F47C1042EA0103D9
:102A20001843974B586070479849086670470146AD
:102A30000020934A506820F003000843506070471C
:102A40008F48406800F00C007047014600208C4A17
:102A5000506820F0F00008435060704701460020A5
:102A6000874A506820F4E060084350607047014690
:102A70000020834A506820F4605040EAC100506052
:102A8000704729B17E4A527A02437D4B5A7204E064
:102A90007B4A527A82437A4B5A7270477B49D831CB
:102AA0000860704701460020754A506820F4404095
:102AB0000843506070470021714A20321170704AFB
:102AC00082F82010012802D004280AD104E0012154
:102AD0006B4A2032117005E00521694A20321170DD
:102AE00000E000BF00BF7047694908607047644953
:102AF000096A0143624A11627047654944390860B6
:102B0000704730B500210022002400235C4D6D6821
:102B100005F00C0121B1042905D0082923D105E0D5
:102B20005C4D056022E05B4D05601FE0544D6D6813
:102B300005F47012524D6D6805F48034022505EBE2
:102B400092421CB9544D554305600BE04C4D6D68E5
:102B500005F400351DB1504D5543056002E04D4D63
:102B60005543056002E04B4D056000BF00BF444D7A
:102B70006D6805F0F0010909484D6B5C0568DD40A2
:102B800045603F4D6D6805F4E061090A434D6B5C9B
:102B90004568DD4085603A4D6D6805F46051C90AAD
:102BA0003E4D6B5C4568DD40C560354D6D6805F494
:102BB0004041890B3A4D6B5CC568B5FBF3F5056187
:102BC00030BD29B12E4A526902432D4B5A6104E0AF
:102BD0002B4A526982432A4B5A61704729B1284ACD
:102BE00092690243264B9A6104E0254A9269824326
:102BF000234B9A61704729B1214AD2690243204B85
:102C0000DA6104E01E4AD26982431D4BDA617047E3
:102C100029B11B4AD2680243194BDA6004E0184A12
:102C2000D2688243164BDA60704729B1144A1269A0
:102C30000243134B1A6104E0114A12698243104B9C
:102C40001A61704712494039086070470F49C864DB
:102C500070470B49C87170470948406A40F080705E
:102C600007494862704701460020054A92680A40B9
:102C70000AB1012000E000207047014988727047C6
:102C8000001002400000FFF8FFFFF6FE0000424285
:102C90008004424200127A0000093D00AB26002069
:102CA000BB26002010B50446F748844209D1012113
:102CB0008803FFF7ADFF00214FF48040FFF7A8FF26
:102CC00032E0F248844209D101214804FFF7ADFF08
:102CD00000214FF40030FFF7A8FF25E0EC488442C4
:102CE00009D101218804FFF7A0FF00214FF48020C3
:102CF000FFF79BFF18E0E748844209D10121C8048F
:102D0000FFF793FF00214FF40020FFF78EFF0BE049
:102D1000E148844208D101210805FFF786FF002120
:102D20004FF48010FFF781FF10BD2DE9F04786B00A
:102D300005460E460024A24600BFA1460027B089E2
:102D400000B100BF2F462C8A4CF6FF700440F0887B
:102D500004432C82AC894EF6F3100440B0883189CC
:102D60000843718908430443AC81AC8A4FF6FF40A5
:102D70000440B0890443AC8201A8FFF7C2FEC248F8
:102D8000874202D1DDF810A001E0DDF80CA0A8898F
:102D900000F4004040B10AEBCA0000EB0A103168B1
:102DA0004900B0FBF1F807E00AEBCA0000EB0A109B
:102DB00031688900B0FBF1F86420B8FBF0F0040141
:102DC0002009642101FB1089A88900F4004040B16A
:102DD000322000EBC900B0FBF1F000F00700044323
:102DE00008E0322000EB09106421B0FBF1F000F0A4
:102DF0000F0004432C8106B0BDE8F0874FF4165154
:102E0000016000218180C18001810C21418100216C
:102E10008181704710B502460020108A4FF2FF03EF
:102E200018400B884C8823438C882343CC88234349
:102E30001843108210BD0021018041808180C18033
:102E4000704721B1828942F40052828104E0828974
:102E50004DF6FF731A4082817047F0B50346002497
:102E600000260025002040F66A17B94200D100BFB5
:102E70001846C1F3421401F01F06012707FA06F5B0
:102E8000012C01D10C3004E0022C01D1103000E003
:102E900014301AB107682F43076002E00768AF4398
:102EA0000760F0BD1AB1838A0B43838202E0838AF4
:102EB0008B4383827047028A4FF6F0731A40028276
:102EC000028A0A430282704782894FF2FF731A40D6
:102ED000828182890A438281704721B1828942F0CE
:102EE0000202828104E082894FF6FD731A408281DA
:102EF0007047028A4FF6DF731A400282028A0A4341
:102F00000282704721B1028A42F48042028204E0C8
:102F1000028A4BF6FF731A40028270470246002075
:102F2000B1F5007F00D100BF13880B400BB1012029
:102F300000E00020704730B504460D46C5F3080098
:102F4000A08000BF80212046FFF7E8FF0028F9D0CD
:102F500030BD01468888C0F308007047818941F080
:102F6000010181817047028BD2B20283028B42EA57
:102F7000012202837047028B02F47F420283028B9C
:102F80000A430283704721B1828A42F02002828282
:102F900004E0828A4FF6DF731A408282704721B1C3
:102FA000828A42F01002828204E0828A4FF6EF7336
:102FB0001A408282704721B1828A42F008028282DE
:102FC00004E0828A4FF6F7731A408282704721B17B
:102FD000828942F40042828103E08289C2F30E02B8
:102FE0008281704721B1828A42F40062828204E0C9
:102FF000828A4FF2FF731A4082827047828A4FF6AC
:10300000FB731A408282828A0A438282704721B10E
:10301000828A42F00202828204E0828A4FF6FD73C5
:103020001A408282704701F40072B2F5007F00D12D
:1030300000BFCA430280704770B5024600240023D7
:103040000025002040F66A16B14200D100BFC1F34E
:10305000421501F01F03012606FA03F3012D02D1E8
:103060009689334006E0022D02D1168A334001E0F2
:10307000968A33400C12012606FA04F4168834406E
:1030800063B15CB101200AE0003801400044004017
:1030900000480040004C004000500040002070BD3F
:1030A00010B50022002340F66A14A14200D100BFEF
:1030B0000A1201249440A3B2DC43048010BD000036
:1030C00031490143314A1160704770B50021002336
:1030D0000F22C47804B32D4C246804F4E064C4F5D2
:1030E000E064210AC1F10403CA40447804FA03F100
:1030F0008478144021430901254C0678A1550478B1
:1031000004F01F050124AC4005786D11AD0005F1F8
:10311000E025C5F8004109E0047804F01F0501240A
:10312000AC401C4D0678761145F8264070BD1A4A11
:103130000A400243154B1B1F1A60704739B1134AEE
:10314000121D12680243114B1B1D1A6006E00F4A44
:10315000121D126882430D4B1B1D1A607047042814
:1031600008D14FF0E021096941F004014FF0E0225D
:10317000116107E04FF0E021096921F004014FF0EF
:10318000E0221161704700000000FA050CED00E03C
:1031900000E400E080E100E080FFFF1F10B504467E
:1031A000FE48844208D10121C014FFF731FD0021FF
:1031B000E014FFF72DFDC4E0B4F1804F08D10121E8
:1031C0000846FFF732FD00210120FFF72EFDB8E091
:1031D000F348844208D101210220FFF726FD002197
:1031E0000220FFF722FDACE0EE48844208D1012125
:1031F0000420FFF71AFD00210420FFF716FDA0E0D0
:10320000E948844208D101210820FFF70EFD002182
:103210000820FFF70AFD94E0E448844208D1012128
:103220001020FFF702FD00211020FFF7FEFC88E0D0
:10323000DF48844208D101212020FFF7F6FC00215D
:103240002020FFF7F2FC7CE0DA48844208D101211B
:103250004014FFF7DDFC00216014FFF7D9FC70E09B
:10326000D548844209D10121C804FFF7D1FC0021CF
:103270004FF40020FFF7CCFC63E0D048844209D132
:1032800001210805FFF7C4FC00214FF48010FFF76F
:10329000BFFC56E0CA48844209D101214805FFF726
:1032A000B7FC00214FF40010FFF7B2FC49E0C5481D
:1032B000844208D101214020FFF7B7FC00214020C3
:1032C000FFF7B3FC3DE0C048844208D101218020D3
:1032D000FFF7ABFC00218020FFF7A7FC31E0BB48E3
:1032E000844208D101218015FFF79FFC0021A01521
:1032F000FFF79BFC25E0B648844209D10121080470
:10330000FFF786FC00214FF48030FFF781FC18E0C6
:10331000B048844209D101214804FFF779FC00211B
:103320004FF40030FFF774FC0BE0AB48844208D147
:1033300001218804FFF76CFC00214FF48020FFF787
:1033400067FC10BD00220288944B98420ED0994B26
:1033500098420BD0B0F1804F08D0914B984205D0E5
:10336000904B984202D0904B984204D14FF68F7305
:103370001A404B881A438D4B984207D08C4B984289
:1033800004D04FF6FF431A40CB881A4302808B8843
:1033900083850B880385814B98420BD0854B9842DF
:1033A00008D08B4B984205D08A4B984202D08A4B6A
:1033B000984201D10B7A038601238382704770B54E
:1033C000002400220023058C4FF6FE76354005844C
:1033D000028C8388048B4FF68F752C40B51E2C40D1
:1033E0000D882C43751E2A400D892A434D882A4397
:1033F0006A4DA8420BD06F4DA84208D0744DA84228
:1034000005D0744DA84202D0734DA84213D14FF697
:10341000F7752A404D892A434FF6FB752A408D885F
:103420002A434FF6FF652B404FF6FF552B408D8901
:103430002B43CD892B4383800483CD8885860284EA
:1034400070BD70B5002400220023058C4FF6EF7686
:1034500035400584028C8388048B48F6FF752C4028
:103460004FF6FF452C400D884FF6FF7606EA0525FE
:103470002C434FF6DF752A400D8906EA05152A43CD
:103480004D8806EA05152A43444DA84202D0494D0D
:10349000A8421DD14FF67F752A404D894FF6FF7621
:1034A00006EA05152A434FF6BF752A408D8806EABD
:1034B00005152A434FF6FF352B404FF2FF752B4081
:1034C0008D8906EA85052B43CD8906EA85052B43C0
:1034D00083800483CD880587028470BD70B5002485
:1034E00000220023058C4FF6FF6635400584028CD0
:1034F0008388848B4FF68F752C404FF6FC752C40DB
:103500000D882C434FF6FF552A400D894FF6FF7664
:1035100006EA05252A434D8806EA05252A431F4D5C
:10352000A84202D0234DA8421DD14FF2FF752A4078
:103530004D894FF6FF7606EA05252A434FF6FF35FB
:103540002A408D8806EA05252A434EF6FF752B4052
:103550004DF6FF752B408D8906EA05152B43CD8965
:1035600006EA05152B4383808483CD8885870284F2
:1035700070BD70B5002200230024058C4EF6FF7646
:1035800035400584038C8488828B48F6FF752A4079
:103590004FF6FF452A400D8820E00000002C014036
:1035A0000004004000080040000C004000100040F3
:1035B0000014004000340140004C01400050014024
:1035C0000054014000180040001C00400020004052
:1035D0000040014000440140004801404FF6FF76A2
:1035E00006EA05252A434DF6FF752B400D8906EAAC
:1035F00005352B434D8806EA05352B43FA4DA84285
:1036000002D0FA4DA84208D14BF6FF752C408D89A7
:103610004FF6FF7606EA85152C4384808283CD8899
:10362000A0F84050038470BD828B4FF2FF331A40E4
:103630008283828B4FF6FF7303EA01231A4382834E
:103640007047F0B50C461546002200210026078C75
:103650004EF6FF7C07EA0C070784828B018C4FF63D
:10366000FF7707EA043640F6FF473A404FF6FF7708
:1036700007EA05273A434FF6FF7707EA03373A434D
:10368000D94FB8420ED0D94FB8420BD0B0F1804FCD
:1036900008D0D74FB84205D0D64FB84202D0D64F47
:1036A000B84206D14DF6FF77394046F4805739438A
:1036B00005E047F6FF57394044F480573943828389
:1036C0000184F0BD828B4FF6F3731A408283828BA4
:1036D0000A4382837047F0B50C461546002200214C
:1036E0000026078C4FF6FF6C07EA0C070784828BD5
:1036F000018C4FF6FF7707EA04264FF60C773A4025
:103700004FF6FF7707EA03172F433A43B64FB84205
:103710000ED0B64FB8420BD0B0F1804F08D0B44FA6
:10372000B84205D0B34FB84202D0B34FB84206D129
:103730004FF6FF57394046F48077394305E04FF2A2
:10374000FF57394044F48077394382830184F0BDC8
:10375000028B4FF2FF331A400283028B4FF6FF7346
:1037600003EA01231A4302837047F0B50C4615465D
:10377000002200210026078C4FF6EF7C07EA0C0799
:103780000784028B018C4FF6FF7707EA041640F698
:10379000FF473A404FF6FF7707EA03373A434FF6C1
:1037A000FF7707EA05273A438F4FB8420ED08F4F75
:1037B000B8420BD0B0F1804F08D08D4FB84205D041
:1037C0008C4FB84202D08C4FB84206D14FF6DF770B
:1037D000394046F01007394305E04FF65F7739402E
:1037E00044F01007394302830184F0BD028B4FF689
:1037F000F3731A400283028B0A4302837047F0B5C9
:103800000C46154600220021068C4FF6FE773E40FE
:103810000684028B018C4FF60C7632407E1C06EA41
:1038200003162E433243704EB0420ED06F4EB0425C
:103830000BD0B0F1804F08D06D4EB04205D06D4E28
:10384000B04202D06C4EB04206D14FF6FD76314008
:1038500044F00106314305E04FF6F576314044F07F
:103860000106314302830184F0BD70B505460C4664
:103870005D4885420ED05D4885420BD0B5F1804F42
:1038800008D05B48854205D05A48854202D05A4844
:10389000854200D100E000BF208850B92389A2886A
:1038A00061882846FFF7ABFFE1882846FFF79EFFB7
:1038B00025E0208804280AD12389A2886188284627
:1038C000FFF753FFE1882846FFF742FF17E0208803
:1038D00008280AD12389A28861882846FFF7FBFEC1
:1038E000E1882846FFF7EEFE09E02389A288618877
:1038F0002846FFF7A6FEE1882846FFF795FE70BD33
:103900002DE9F04105460C4600260127608808B9DC
:10391000022600E00026A088012801D1022700E04D
:1039200001272088A0B92389A28861882846FFF74B
:1039300066FFE1882846FFF759FF23893A4631465A
:103940002846FFF712FFE1882846FFF701FF13E042
:103950002389A28861882846FFF707FFE188284667
:10396000FFF7F6FE23893A4631462846FFF747FF20
:10397000E1882846FFF73AFFBDE8F0810A884B88C6
:103980001A438B881A43CB881A430B891A434B89F5
:103990001A438B891A43A0F8442070474FF6FF71F1
:1039A000818000210180C180418001727047002127
:1039B000018041808180C180018141818181C181FB
:1039C0007047002101804180012181800021C18058
:1039D000018170470021018041808180C180018187
:1039E0004181818170470000002C0140003401407A
:1039F0000004004000080040000C004021B1028893
:103A000042F00102028004E002884FF6FE731A4081
:103A10000280704731B1B0F8442042F40042A0F86F
:103A2000442005E0B0F84420C2F30E02A0F8442080
:103A300070471AB183890B43838102E083898B43EA
:103A4000838170478182704741EA0203A0F84830C1
:103A500070471AB183890B43838102E083898B43CA
:103A60008381704701894FF6F872114001817047D8
:103A70000A46002101894FF68F73194011430181D5
:103A8000704730B504460D4629462046FFF7F0FF43
:103A9000208940F00700208130BD2DE9F041044627
:103AA0000D4616461F46602D06D13B460122314683
:103AB0002046FFF75AFE05E03B46012231462046EC
:103AC000FFF79DFE29462046FFF7D2FF208940F0F0
:103AD00007002081BDE8F08130B50C460021018946
:103AE000C9B24FF6FF7505EA03251543254329435F
:103AF000018130BD2DE9F04105460E461746984636
:103B0000002443463A4631462846FFF7E5FF2C8914
:103B10004FF6F870044044F007044FF68F700440ED
:103B200044F070042C81BDE8F081F0B504460D46E8
:103B300016461F463B46324629462046FFF7CCFF35
:103B4000208940F480402081F0BD01858282704749
:103B50000A46002101884FF68F73194011430180F6
:103B60007047F0B50C4615461E4600210022002382
:103B70000189028B038C4FF6F877394021434FF6C9
:103B8000FC473A4040F201173A434FF6DD773B409D
:103B90004FF6FF7707EA06172F433B430181028365
:103BA0000384F0BD0A460021018B4FF68F73194044
:103BB0001143018370470A460021018B48F6FF73C9
:103BC00019404FF6FF7303EA02231943018370473C
:103BD0000A460021818B4FF68F7319401143818370
:103BE00070470A460021818B48F6FF7319404FF653
:103BF000FF7303EA022319438183704721B10288CE
:103C000042F08002028004E002884FF67F731A407F
:103C10000280704721B1828842F00402828004E071
:103C200082884FF6FB731A408280704721B18288E8
:103C300042F00802828004E082884FF6F7731A404F
:103C40008280704721B1828842F00102828004E0C4
:103C500082884FF6FE731A40828070470A46002120
:103C6000018B4FF6F77319401143018370470A46E1
:103C70000021018B4FF2FF7319404FF6FF7303EAE7
:103C800002231943018370470A460021818B4FF6B6
:103C9000F77319401143818370470A460021818BD5
:103CA0004FF2FF7319404FF6FF7303EA02231943E3
:103CB000818370470A460021018B4FF6FB73194040
:103CC0001143018370470A460021018B4FF6FF33F1
:103CD00019404FF6FF7303EA02231943018370472B
:103CE0000A460021818B4FF6FB73194011438183F3
:103CF00070470A460021818B4FF6FF3319404FF67B
:103D0000FF7303EA02231943818370470A460021A7
:103D1000018B4FF67F7319401143018370470A46A8
:103D20000021018BC1F30E014FF6FF7303EA02235A
:103D30001943018370470A460021818B4FF67F7338
:103D400019401143818370470A460021818BC1F3DA
:103D50000E014FF6FF7303EA022319438183704774
:103D60000A460021018C4FF6FD731940114301846E
:103D700070470A460021018C4FF6F7731940114332
:103D8000018470470A460021018C4FF6DF73194009
:103D90004FF6FF7303EA02131943018470470A4682
:103DA0000021018C4FF67F7319404FF6FF7303EA31
:103DB00002131943018470470A460021018C4FF613
:103DC000FF5319404FF6FF7303EA0223194301849E
:103DD00070470A460021018C4FF2FF7319404FF6DD
:103DE000FF7303EA02231943018470470A46002146
:103DF000018C4DF6FF7319404FF6FF7303EA02334F
:103E000019430184704730B5002301248C40A3B2CC
:103E1000048C9C430484048C02FA01F5ADB22C435B
:103E2000048430BD30B5002304248C40A3B2048C3C
:103E30009C430484048C02FA01F5ADB22C43048443
:103E400030BD70B503460020002418461830012507
:103E50008D40ACB21D8CA5431D8409B1082909D140
:103E600000EB6100056825F07005056005681543E5
:103E700005600EE00D1FC5F34E052844056825F4C6
:103E8000E045056005684FF6FF7606EA02263543F1
:103E9000056070BD21B1028842F00202028004E098
:103EA00002884FF6FD731A400280704721B10288E4
:103EB00042F00402028004E002884FF6FB731A40CD
:103EC0000280704721B1828842F08002828004E043
:103ED00082884FF67F731A408280704702884FF6BF
:103EE000F7731A40028002880A4302807047828872
:103EF0004FF68F731A40828082880A43828070470F
:103F000002894FF6F8731A40028102890A4302813E
:103F1000704702894FF67F731A40028102890A4373
:103F20000281704781847047818570478186704720
:103F30000187704781877047A0F84010704702885A
:103F40004FF6FF431A40028002880A4302807047FE
:103F50000146888E70470146088F70470146888F5A
:103F600070470146B1F8400070470146888C7047A1
:103F70000146088D704702460020138A0B400BB1A2
:103F8000012000E000207047CA430282704730B52C
:103F90000246002000230024158A05EA01039589C2
:103FA00005EA010413B10CB1012000E0002030BD8E
:103FB000CA43028270470000064C074D06E0E068E5
:103FC00040F0010394E8070098471034AC42F6D360
:103FD000FCF7B2F8B4C40008D4C4000870B58C185B
:103FE00010F8015B15F0070301D110F8013B2A110D
:103FF00006D110F8012B03E010F8016B01F8016BFA
:104000005B1EF9D12B0705D40023521E0DD401F8F5
:10401000013BFAE710F8013BCB1A921C03E013F8BE
:10402000015B01F8015B521EF9D5A142D8D30020F3
:1040300070BD02E008C8121F08C1002AFAD17047FB
:104040007047002001E001C1121F002AFBD1704718
:104050004D696E6953544D333220494943205445CC
:10406000535400003F000000060000005B00000009
:104070004F000000660000006D0000007D000000A1
:10408000070000007F0000006F000000000000003B
:1040900000000000002F00000000070007000014CF
:1040A0007F147F1400242A7F2A12006264081323DD
:1040B00000364955225000000503000000001C2274
:1040C0004100000041221C000014083E08140008B2
:1040D000083E0808000000A0600000080808080862
:1040E000000060600000002010080402003E5149FA
:1040F000453E0000427F4000004261514946002198
:1041000041454B31001814127F10002745454539B1
:10411000003C4A494930000171090503003649490C
:10412000493600064949291E0000363600000000C5
:104130005636000000081422410000141414141410
:1041400000004122140800020151090600324959B9
:10415000513E007C1211127C007F49494936003ED5
:1041600041414122007F4141221C007F4949494190
:10417000007F09090901003E4149497A007F08088A
:10418000087F0000417F4100002040413F01007F47
:1041900008142241007F40404040007F020C027F13
:1041A000007F0408107F003E4141413E007F090925
:1041B0000906003E4151215E007F0919294600464B
:1041C000494949310001017F0101003F4040403F22
:1041D000001F2040201F003F4038403F006314086C
:1041E0001463000708700807006151494543000047
:1041F0007F41410000552A552A55000041417F006A
:10420000000402010204004040404040000001025E
:104210000400002054545478007F48444438003847
:104220004444442000384444487F003854545418CF
:1042300000087E0901020018A4A4A47C007F0804E1
:1042400004780000447D4000004080847D00007FB1
:10425000102844000000417F4000007C04180478CE
:10426000007C0804047800384444443800FC2424CA
:1042700024180018242418FC007C080404080048B2
:104280005454542000043F444020003C4040207CD3
:10429000001C2040201C003C4030403C00442810C2
:1042A0002844001CA0A0A07C004464544C44141476
:1042B00014141414000000000000000000000000AE
:1042C00000000000000000F80000000000000033C3
:1042D0003000000000100C06100C0600000000006A
:1042E0000000000040C07840C0784000043F040453
:1042F0003F040400007088FC08300000001820FF14
:10430000211E0000F008F000E018000000211C034E
:104310001E211E0000F00888700000001E212324CA
:104320001927211010160E000000000000000000E8
:1043300000000000000000E0180402000000000778
:104340001820400000020418E0000000004020187F
:1043500007000000404080F0804040000202010F52
:1043600001020200000000F0000000000101011F36
:1043700001010100000000000000000080B070009A
:10438000000000000000000000000000000101012A
:1043900001010101000000000000000000303000B9
:1043A0000000000000000000806018040060180693
:1043B0000100000000E010080810E000000F1020CD
:1043C00020100F00001010F8000000000020203F17
:1043D00020200000007008080888700000302824A1
:1043E0002221300000300888884830000018202042
:1043F00020110E000000C02010F800000007042467
:10440000243F240000F808888808080000192120AB
:1044100020110E0000E0108888180000000F112005
:1044200020110E0000380808C83808000000003FBE
:10443000000000000070880808887000001C22211D
:1044400021221C0000E010080810E00000003122CA
:1044500022110F00000000C0C0000000000000306A
:1044600030000000000000800000000000008060BC
:10447000000000000000804020100800000102043D
:104480000810200040404040404040000404040424
:1044900004040400000810204080000000201008E0
:1044A00004020100007048080808F0000000003015
:1044B00036010000C030C828E810E00007182724A3
:1044C00023140B000000C038E0000000203C230251
:1044D0000227382008F8888888700000203F2020B4
:1044E00020110E00C03008080808380007182020E6
:1044F0002010080008F808080810E000203F2020DD
:1045000020100F0008F88888E8081000203F2020BD
:104510002320180008F88888E8081000203F2000B1
:1045200003000000C03008080838000007182020E9
:10453000221E020008F808000008F808203F2101A8
:1045400001213F20000808F8080800000020203F53
:104550002020000000000808F8080800C0808080C3
:104560007F00000008F888C028180800203F2001BC
:104570002638200008F8080000000000203F202016
:104580002020300008F8F800F8F80800203F003F2D
:10459000003F200008F830C00008F808203F200045
:1045A00007183F00E01008080810E0000F10202056
:1045B00020100F0008F808080808F000203F21012B
:1045C00001010000E01008080810E0000F18242482
:1045D00038504F0008F8888888887000203F2000F5
:1045E000030C3020007088080808380000382021AB
:1045F00021221C00180808F8080818000000203FB5
:104600002000000008F808000008F808001F20201B
:1046100020201F000878880000C8380800000738EC
:104620000E010000F80800F80008F800033C07003D
:10463000073C0300081868808068180820302C03A5
:10464000032C30200838C800C83808000000203F7C
:104650002000000010080808C8380800203826216B
:1046600020201800000000FE020202000000007F6F
:1046700040404000000C30C000000000000000017D
:104680000638C00000020202FE0000000040404068
:104690007F0000000000040202020400000000008D
:1046A000000000000000000000000000808080800A
:1046B00080808080000202040000000000000000F2
:1046C000000000000000808080800000001924228B
:1046D00022223F2008F8008080000000003F1120C7
:1046E00020110E000000008080800000000E1120CC
:1046F00020201100000000808088F800000E1120AA
:1047000020103F200000808080800000001F2222B7
:1047100022221300008080F0888888180020203F23
:10472000202000000000808080808000006B949436
:104730009493600008F8008080800000203F2100F2
:1047400000203F2000809898000000000020203FBB
:1047500020200000000000809898000000C08080A9
:10476000807F000008F8000080808000203F240245
:104770002D302000000808F8000000000020203F35
:10478000202000008080808080808000203F2000EA
:104790003F20003F8080008080800000203F21007B
:1047A00000203F200000808080800000001F20202B
:1047B00020201F00808000808000000080FFA1205A
:1047C00020110E000000008080808000000E11206B
:1047D00020A0FF80808080008080800020203F21FA
:1047E00020000100000080808080800000332424AD
:1047F00024241900008080E0808000000000001F59
:10480000202000008080000000808000001F202009
:1048100020103F20808080000080808000010E30CA
:104820000806010080800080008080800F300C032B
:104830000C300F0000808000808080000020312E2E
:104840000E312000808080000080808080818E700A
:104850001806010000808080808080000021302CBC
:104860002221300000000000807C020200000000D5
:10487000003F404000000000FF000000000000007A
:10488000FF0000000002027C800000000040403F6A
:104890000000000000060101020204040000000004
:1048A0000000000000000080C0E0F0F0F8F8F8F828
:1048B000F8F8F8F8F0F0E0E0C000000000F0F0F0E8
:1048C000F0F0F000000000F0F0F0F0F0F0F0F0F0A8
:1048D000800000000000000000E0F0F0F0F0F0F0D8
:1048E000F0F0000000F0F0F0F0F0F0F0000000F068
:1048F000F0F0F0F0F0F0F0F0F0F0F0F0E0E0C08078
:1049000000000000F0F0F0F0F0F0F0F0F0F0F0F067
:10491000F0F0F0F0F0F0000000000000003F7FFF3A
:10492000FFFFFFFFF8F8F0F0F0E0E1C1C3830700FC
:10493000000000FFFFFFFFFFFF00000000FFFFFF80
:10494000FFFF3FFFFFFFFFFEF8C00080E0FCFFFF1E
:10495000FF3FFFFFFFFFFFFF000000FFFFFFFFFF24
:10496000FFFF000000FFFFFFFFFFFFC1C1C1C3C386
:10497000F7FFFFFFFF7F1E000000FFFFFFFFFFFFAD
:10498000FFE0E0E0E0E0E0E0E0E000000000000048
:104990000000F8F0E0E0C0C1C1C3C3C7C7C7EFFF64
:1049A000FFFFFFFFFF3C000000FFFFFFFFFFFF00D6
:1049B000000000FFFFFFFFFF0000031F7FFFFFFF5E
:1049C000FFFFFF7F0F030000FFFFFFFFFFFF00005F
:1049D00000FFFFFFFFFFFFFF000000FFFFFFFFFFE3
:1049E000FF07070707073FFFFFFFFEFCC0000000AF
:1049F000FFFFFFFFFFFFFFC1C1C1C1C1C1C1C1C1F5
:104A0000C0C0000000000000000101030307070709
:104A1000070707070707030301010000000000075D
:104A20000707070707000000000707070707000040
:104A30000000000307070707010000000000070748
:104A40000707070700000007070707070707000019
:104A50000007070707070700000000000007070717
:104A600007070700000007070707070707070707EB
:104A700007070707070707070000000000101010CE
:104A800010000080000000000000000000003E4117
:104A900041413E0000027F0000006651514946003E
:104AA0002249494936003028247F200037454545B2
:104AB00039003E4949493A00010179050300364968
:104AC00049493600264949493E000010101010009F
:104AD0000080000000003C1A0A42423C10101808F6
:104AE00008000C426272423C6651514946006651D0
:104AF000514946007C1211127C007F494949360019
:104B00003E41414122007F4141413E007F494949A8
:104B100041007F09090901003E4149493A007F08E7
:104B200008087F0000417F4100000041413F010033
:104B3000007F18244200007F404040007F017F0139
:104B40007F00007F08107F003E4141413E00007F12
:104B500009090E003E4141215E007F0919294600E6
:104B600026494949320001017F0101003F40404090
:104B70003F001F2040201F000F700E700F006314B5
:104B8000081463000304780403006151494543009D
:104B90000000008080C0C040C0C0808000000000D5
:104BA00000FCFFFF0F01000000010FFFFFFC0000F1
:104BB000001F7FFFF8C0800080C0FCFF3F0F000097
:104BC00000000000000101010101000000000000E0
:104BD00000000000000080C0C000000000000000D5
:104BE000000000010101FFFFFF00000000000000C5
:104BF000000000000000FFFFFF8000000000000038
:104C0000000000010101010101010101010000009A
:104C100000000080C0C0404040C0C08000000000D4
:104C2000000E1F1F1F00000080E0FF7F3F0E0000EE
:104C300000C0E0F0B89C8E878381C0E0F070000077
:104C40000001010101010101010101010100000058
:104C500000008080C0404040C0C080800000000054
:104C60000002070707404040E0FFBF9F0F00000021
:104C70000070F0F0F00000008081FFFF7F1C00005A
:104C8000000000000101010101010000000000001E
:104C90000000000000000080E0E0E00000000000F4
:104CA000000080E0783C0F07FFFFFF0000000000DD
:104CB0000407070504040484FFFFFF8404040000C4
:104CC00000000000000101010101010101010000DB
:104CD0000000C0C0C0C0C0C0C0C0C0C0C000000094
:104CE0000000FFFFCF6020202060E0C080000000B7
:104CF0000038F8F9F800000080C0FFFF7F1F0000B7
:104D0000000000000101010101010100000000009C
:104D10000000000080C0C04040C0C0C08000000053
:104D200000F8FEFFCF6160202063E3C3C3000000F2
:104D3000001F7FFFF1C080000080F3FF7F3F000075
:104D4000000000000101010101010100000000005C
:104D50000000C0C0C0C0C0C0C0C0C0C0C0400000D3
:104D600000070703010080E0F07C0F030100000052
:104D700000000000C0FCFFFF070000000000000072
:104D80000000000000010101000000000000000020
:104D900000008080C0C0404040C0C08000000000D3
:104DA000000E3FBFF1E0E0C0C0E0F33F1F0E000087
:104DB000007EFFFF818000000183C7FF7E3C000072
:104DC00000000000010101010101010000000000DC
:104DD00000008080C0C0404040C0808000000000D3
:104DE00000FEFFFF830000000080EFFFFFFC0000DB
:104DF0000000E1E3E383028283E3FF7F1F070000FB
:104E0000000000010101010101000000000000009C
:104E10000000000000000000000000000000000092
:104E20000000000000000000000000000000000082
:104E30000000000000000000000000000000000072
:104E40000000000000000000000000000000000062
:104E5000000000000000000001010101010100004C
:104E600000000000000000000030300000000000E2
:104E70000000000000000000000000000000000032
:104E800000E010080810E000000F102020100F00B4
:104E9000001010F8000000000020203F202000003B
:104EA0000070080808887000003028242221300093
:104EB00000300888884830000018202020110E009B
:104EC0000000804020F8000000070404243F240074
:104ED00000F80888880808000019212020110E0019
:104EE00000E0108888081000000F112020110E002B
:104EF00000380808C82818000000003F0000000023
:104F00000070880808887000001C222121221C00E3
:104F100000E010080810E0000010212222110F000C
:104F2000000000F0000000000101011F010101006C
:104F30000000000000000000000000000000000071
:104F400000FC00000000000C0C0000000008040A37
:104F50000402000000000000000020A07820F820DB
:104F600000020F020F02020000000000000000001B
:104F7000000000000000708870C030880000080643
:104F8000010708078070C8308080000708090E0BF1
:104F9000080410160E0000000000000000000000D1
:104FA000000000F00C0200000000030C10000002E2
:104FB0000CF000000000100C030000002020C0F8DE
:104FC000C0202001010007000101404040F840409E
:104FD000400000000300000000000000000000206E
:104FE0002C1C0000000000808080808000000000F9
:104FF0000000000000000000000000000C0C000099
:10500000000000000080601C0200100E0100000083
:1050100000F0080808F00000070808080700001062
:1050200010F80000000000000F0000000030080829
:10503000887000000C0A0908080000300888887091
:10504000000006080808070000C02010FC0000014E
:105050000202020F020000F84848488800000608D3
:1050600008080700E09088888810000708080808EA
:105070000700003808886818000000000F000000D2
:1050800070888888887000070808080807007088FA
:10509000888888F0000408080804030000006060A5
:1050A00000000000000C0C000000000000400000A8
:1050B00000000020180000000040A01008040000BC
:1050C0000000010204002020202020200001010116
:1050D0000101010000040810A040000004020100CA
:1050E00000003804048444380000000C0D00000067
:1050F000E010C828E810E003040B0A090A0500E0E4
:10510000100810E000000F0101010F0008F84848E6
:1051100048B000080F0808080700E0100808083821
:10512000000304080808040008F8080810E0000854
:105130000F080804030008F88888C81800080F083A
:1051400008090C0008F88888C80810080F08000132
:105150000000E010080808380003040808090701E7
:1051600008F8888088F808080F0800080F08000869
:1051700008F80808000008080F080800000808F8E8
:105180000808003020201F00000008F888C02818F8
:1051900008080F08000B0C0808F8080000000008B9
:1051A0000F0808080C0008F8788078F808080F0045
:1051B0000F000F0808F838C008F808080F080106A3
:1051C0000F00E010080810E00003040808040300C2
:1051D00008F88888887000080F0800000000E010B8
:1051E000080810E00003040A0A1C130008F848C865
:1051F000483000080F0800030C0800304888881861
:1052000000000C0808080700180808F8080818002B
:1052100000080F08000008F8080008F80800070850
:105220000808070008F8080008F8080000030C0345
:10523000000008F800F800F80800010F000F010056
:1052400008186880681808080C0B000B0C08081870
:1052500068806818080000080F08000010088848D7
:10526000380800080E0908080C00000000FE0202C1
:10527000000000001F101000000C30C000000000F3
:10528000000001061800000202FE000000001010DD
:105290001F000000000002000000000000000000ED
:1052A000000000000000000000202020202020201E
:1052B000000002000000000000000000000000806C
:1052C000404040800000040A09090F0808F84040E7
:1052D000408000000F08080807000080404040C0E0
:1052E00000000708080804000080404048F800005B
:1052F000070808080F0800804040408000000709A8
:10530000090905004040F04848180000080F080847
:10531000000000804040C04000001D2A2A291000E3
:1053200008F88040408000080F0800080F0800407F
:1053300040C80000000008080F08080000004040B6
:10534000C80000002020201F000008F80040C040D6
:1053500000080F0A030C0800000808F8000000000D
:1053600008080F08080040C040C0408000080F0037
:105370000F000F0840C08040408000080F08000860
:105380000F08008040404080000007080808070020
:1053900040C04040408000203F28080807000080AF
:1053A000404040C00000070808283F204040C0801F
:1053B00040400000080F08000000008040404040CE
:1053C00000000809090A0400004040F040400000C5
:1053D00000000708080040C0000040C000000708A7
:1053E00008080F0840C0400040C040000007080700
:1053F000000040C000C000C04000030C030C0300CC
:1054000040C00040C04000080C0B030C080040C026
:10541000400040C0402020330C03000000404040CA
:10542000C0400000080C0B080800000000FE02024B
:10543000000000001F101000000000FF000000002E
:1054400000003F000000000202FE000000001010FB
:105450001F0000000002010102040400000000001F
:105460000000021232571232D2120A4F3A0A0200D8
:105470001111090905033F03050909111100000075
:10548000FC252624FC242625FC0000000808090928
:1054900009093F090909090808000000FE22222223
:1054A00022FE22222222FE00201807010101011FF4
:1054B000010121213F000000FC444444454644448E
:1054C0004444FC0020180700000000000000000019
:1054D000000090905436159C945414365C909000C3
:1054E00020282929251414120908040000004A2C38
:1054F000987F182C4A4030CF08F80800212517194A
:105500000917200020130C1320003412D3525652D6
:105510005A5453D21612320000003F1515151515B6
:1055200015153C0000004444FC4400FE9292FE929B
:1055300092FE000008080704202424243F24242489
:10554000200000E02F292929292929292FE00000FE
:10555000202710100804030808101027000008086E
:10556000FF880048C8487F48C808000021213F0044
:105570002020110A040A1120200010101010D03031
:10558000FF30D012141010000804020100003F0088
:10559000000102040800808282FFAAAAAAAAAAFF28
:1055A000828280002422212424243E2424242122B7
:1055B0002400080808886818FF1868880808080088
:1055C0000402010404043F04040401020400202135
:1055D000E60040A09E8282829EA0200000001F085C
:1055E00024201314081412212000002FA9A9AFA908
:1055F000F9A9AFA9A92F000020203F2020203C209E
:1056000020203F202000041880FF001010907F9081
:10561000121410000201003F20100C0300030C10B4
:1056200020008484444424548F14244444848400FB
:105630002018001C2020222C203000041800444494
:10564000A4948C84BF848C94A444440020202F2AEA
:105650002A2A2A2A2A2A2F2020002021E60008F4BC
:1056600097949494F404FC0000001F08040F0404B1
:10567000040427201F0000C4445464454644645475
:1056800044444000201F0000000000000000000013
:10569000000000003E222222222222223E000000A0
:1056A0003F111111113F003F111111113F00201046
:1056B000FC030454545556545454040000003F0055
:1056C000003F11111111113F00000000FC5456550C
:1056D00054545454FC0000002018011D2121232D96
:1056E00021310104180004040474545556545474B0
:1056F00004040400003F01011D1515151D01213F83
:105700000000985433180002FE0262524EC000009E
:105710001111090920180722140816212000402021
:10572000F807E048442B92522A46400000003F0010
:105730000720292914120904020004C444447C20CF
:1057400010EF080808F80800003F10080420201097
:105750000B040B10200046320272828AD3A2928A76
:10576000C212660002021D1110101E1010103C0023
:10577000000084E45C44C4027A4242427E40C0009D
:10578000001F08081F020202020222201F00080850
:10579000FF88005C44C4754644C45C0021213F007E
:1057A000002022130C040A1120001028E7240064B2
:1057B000DC1054FF547C100001011F29140817103D
:1057C000253F252524001028E7242400F21410DFAB
:1057D0001014F20001013F110920271008070810DA
:1057E00027000C0424242425E624242424040C006B
:1057F00020100F1020203F22222222202000000013
:10580000FE02020202020202020202002018070047
:105810000000000000000000000004E424AC742537
:10582000262474AC24E40400003F01000F09090998
:105830000F20213F00000808FF8800FC00021C0028
:10584000FF00000021213F00000F2412080601067E
:1058500038001010082824222122242808101000C3
:1058600000003F111111111111113F000000000043
:10587000E020203F24242424E40400002018030214
:105880000A32020A3202030830000C044484142550
:105890000604F40404040C0002222212120A060375
:1058A000060A12220200FC4444FC0008488808084A
:1058B000FF0808000F04040F0000000120203F0033
:1058C00000004042CC00202222E22222222020009E
:1058D00020100F10242625242425262C200088445F
:1058E000E2190020222222E22222200000003F00B2
:1058F00000000020203F0000000008C8FF4880F49E
:105900005F5454545FF4040001003F002425150D3A
:10591000070D15252400084848C848480808FF080E
:10592000090A08001010101F0808080001060810D6
:105930003C0000FC242426252424242424FC0000EC
:10594000003F1111111111111111113F00002022FE
:10595000E22222200808FF080808F80004070404CF
:10596000052E100C030020201F000808FF884800A7
:10597000F808090E0808080021213F002018070038
:1059800000000000000000FF052525FD252525FD60
:1059900025270000201F01013F21130509151321B0
:1059A000210000F848484848FF48484848F80000A7
:1059B0000007020202021F2222222223380008C806
:1059C000FF488800FE020202FE00000001003F00C6
:1059D0002018070000001F2038004888090EE80042
:1059E0005E50D05F50505E001013100B08003F0156
:1059F0001F011F213F00404141414141E1514945C3
:105A0000434140000000000020203F000000000053
:105A10000000109C53300C00FCA4A5A6A4A4BC005C
:105A20001111110909023F041F041F243F008C4477
:105A300075A6A4640C00F21AD612F20004023D14FA
:105A4000143D02201708070837000404FC04040072
:105A500008FF080808F800000404030222100C03E1
:105A60000020201F000010A4440424B56E249404D8
:105A700044A410000504040405053F0505070404BB
:105A800005000000FE02424242FA42424242020047
:105A9000201807202020203F2020222C2000645C9A
:105AA000E744440024A4742F2424240004043F0267
:105AB000020001010911290503004042CC0004F451
:105AC0009494FF9494F4040020100F1028242221B1
:105AD0003F21222428008887FC848400FE22222281
